:020000040800F2
:1000000058380020A1020008612D0008592D000871
:100010005D2D00082B1D0008A55C000800000000F5
:100020000000000000000000000000005132000845
:100030008D2B000800000000C53000084133000887
:10004000BB020008BB020008BB020008BB0200089C
:10005000BB020008BB020008BB020008BB0200088C
:10006000BB020008BB020008BB020008BB0200087C
:10007000BB020008BB020008C5270008F9270008DA
:10008000BB0200082D280008BB020008BB020008C4
:10009000311D0008BB020008BB020008BB020008BB
:1000A000BB020008BB020008BB020008BB0200083C
:1000B000BB020008BB020008BB020008BB0200082C
:1000C000BB020008BB020008BB020008BB0200081C
:1000D000BB020008913A0008D53B00080D3E00081D
:1000E000BB020008BB020008012E0008BB0200088A
:1000F000BB020008BB020008BB0200086128000820
:10010000BB020008BB020008BB020008BB020008DB
:10011000ED390008413A0008BB020008113500081B
:10012000BB020008BB020008BB020008BB020008BB
:10013000BB020008BB020008BB020008BB020008AB
:10014000BB020008BB020008BB020008F12D00083A
:10015000BB020008BB020008BB020008BB0200088B
:10016000BB020008BB020008BB020008BB0200087B
:10017000BB020008BB020008BB020008BB0200086B
:10018000BB020008BB02000800F002F800F078F89B
:100190000AA090E8000C82448344AAF10107DA45E2
:1001A00001D100F06DF8AFF2090EBAE80F0013F0BC
:1001B000010F18BFFB1A43F001031847D80F0100C5
:1001C000F80F01000A444FF0000C10F8013B13F047
:1001D000070408BF10F8014B1D1108BF10F8015BA0
:1001E000641E05D010F8016B641E01F8016BF9D193
:1001F00013F0080F1EBF10F8014BAD1C0C1B09D1EA
:100200006D1E58BF01F801CBFAD505E014F8016B5B
:1002100001F8016B6D1EF9D59142D6D370470000ED
:100220000023002400250026103A28BF78C1FBD8FF
:10023000520728BF30C148BF0B60704766290FF0D6
:100240009A86642900F0E880732900F04686002031
:1002500070471FB50FF085FE9DE8030000F018FB06
:1002600000F0AEFE0400002000210EF001FBE06073
:1002700000F0DCFA1FBD10B5002000F03DFE10BDFF
:1002800001F023F81146FFF7E4FF0DF0A9FF01F09C
:1002900045F803B4FFF7EFFF03BC00F087FE000052
:1002A0000948804709480047FEE7FEE7FEE7FEE70A
:1002B000FEE7FEE7FEE7FEE7FEE7FEE70448054946
:1002C000054A064B70470000853300088901000885
:1002D000583200205838002058340020583400206C
:1002E00070B50D460646041F00F0B2FAD0F800C003
:1002F000C5B1E6B105F10B0020F00703AB423CBFEE
:10030000002070BD2068984238BFDCF8042013D369
:10031000C11A08292FD3E01840F8041B236000F00D
:1003200015FB28E0304600F011FB002070BD284688
:10033000BDE8704000F0DBBA002A18BFA2423CBF03
:1003400094465268F8D30119914216D111680844B5
:10035000984212D3C11A08293CBF2060506808D3C4
:100360005168E0184160216812681144C91A01609F
:100370002360CCF80400201D70BD181F00F0B7FAF0
:10038000050007D021680A1F211D00F0DDFD201D9A
:1003900000F0DCFA284670BD0FB41CB5084B06AA65
:1003A0007B4469460090059800F06DFD04460020EE
:1003B000694600F07BFD20461CBC5DF814FB000084
:1003C000090B000070B50C460546012A05D02878B7
:1003D000800600D5EA69002302E0012305E05B1CEA
:1003E000934202D2E05C0028F9D1A869E618C01A4D
:1003F000A861286A184428622846AFF3008004E008
:10040000D5E9012114F8010B9047B442F8D32846EE
:10041000AFF3008070BD00002DE9F04106460024D6
:1004200010687529314616A510D0AFF3008000285A
:1004300002DA404213A507E031688A0701D512A508
:1004400002E0490704D511A5012401E0AFF30080C3
:1004500000210A2206F1240709E0B0FBF2FCB0FB00
:10046000F2F302FB1C00303078541846491C002877
:10047000F3D123462A463046BDE8F04100F098BA51
:10048000000000002D0000002B00000020000000F4
:100490002DE9F05F894604464FF0000ADFF874B199
:1004A000FB44C0F820A02046E1688847002874D0AB
:1004B000252806D0D4E901219047206A401C2062FB
:1004C000F1E700265F462046E16888472028054678
:1004D00007DB312D05D2781910F8200C08B106433E
:1004E000F1E7B00701D526F00406C4F81CA00027E8
:1004F000C4F818A02A2D09D028460DF007FE38B3FD
:1005000004EB8708303DC8F8185019E059F8041B6F
:10051000204604EB87029161E1688847012F054678
:1005200018D1E069002820DA26F020061DE0D8F86E
:10053000180000EB800005EB40003038C8F81800C8
:100540002046E168884705460DF0E0FD0028EED121
:10055000012F0AD02E2D08D12046E16888477F1C44
:100560000546022F46F02006C4DBA069002803DA06
:10057000404246F00106A061F00701D026F01006C7
:100580006C2D0BD0682D09D04C2D39D06A2D35D06B
:10059000742D35D07A2D33D016E038E0E1682F463F
:1005A00020468847B842054609D16C2F26D04FF423
:1005B0008060E168064320468847054604E06C2FCA
:1005C0001AD04FF4807006430DB3A5F141001928ED
:1005D00002D8203546F400664A4629462046266061
:1005E0004E46FFF72BFE80B101280BD0F61D26F0FA
:1005F000070000F1080956E74020E4E78020D8E72B
:100600000020D6E706F104094DE7284652E7206AA4
:10061000BDE8F09F460501002DE9F041074615466B
:100620000E46102000F063F904000AD06760C4E9A8
:10063000026500F011F90168216004600020BDE846
:10064000F0810120FBE740EA0103024630B59B0739
:1006500010D14FF0013400E008C208C91D1B9D43B2
:1006600015EAC41FF8D013F0FF0102F8011B0DD0EA
:100670001B0AF8E711F8013B002B02F8013B05D0FB
:1006800011F8013B002B02F8013BF3D130BD10B54E
:10069000431C02E010F8011B71B18107FAD14FF041
:1006A000013202C88C1A8C4314EAC211F9D0C01A64
:1006B0000A0603D0C01E10BDC01A10BD0A0401D026
:1006C000801E10BD0902FCD0401E10BD032A40F25E
:1006D000308010F0030C00F0158011F8013BBCF1E4
:1006E000020F624498BF11F801CB00F8013B38BFFC
:1006F00011F8013BA2F1040298BF00F801CB38BF0A
:1007000000F8013B11F0030300F01E84083AC0F02A
:10071000088051F8043B083A51F804CBA0E80810CF
:10072000F5E7121D5CBF51F8043B40F8043BAFF302
:100730000080D20724BF11F8013B11F801CB48BF5C
:1007400011F8012B24BF00F8013B00F801CB48BF92
:1007500000F8012B70474FF0000200B51346944695
:100760009646203922BFA0E80C50A0E80C50B1F109
:100770002001BFF4F7AF090728BFA0E80C5048BF1D
:100780000CC05DF804EB890028BF40F8042B08BFBB
:10079000704748BF20F8022B11F0804F18BF00F8B7
:1007A000012B70474FF0013C50F8042B51F8043BEB
:1007B0009A4221D1A2EB0C03934313EACC1317D135
:1007C00050F8042B51F8043B9A4215D1A2EB0C03CC
:1007D000934313EACC130BD150F8042B51F8043B8C
:1007E0009A4209D1A2EB0C03934313EACC13DBD05A
:1007F0004FF00000704700BFD01A01BAB1FA81F182
:1008000001F0180122FA01F0CB40C1F12001DBB266
:10081000C0B2C01A2CFA01F3D11A914311EAC311E4
:10082000E6D17047704770477047000070B5064CBE
:100830007C44064D7D4403E0206820448047241D0D
:10084000AC42F9D170BD00009C090100A80901006B
:1008500000487047003200200048704730320020C6
:10086000704770477047704738B504460A46002005
:100870006946AFF30080002808BF38BD02460099E2
:10088000204600F0B0FB012038BD012000F0C4BCC0
:10089000F8B5AFF30080054600200C46102000BFDD
:1008A0000646A819A0420DD9324669460020AFF38A
:1008B0000080070008BF00F0AFFC0098A04218BFFE
:1008C0000546C419FFF7C4FF05600746F01D20F078
:1008D00007004619284600F07FFBB44208BFF8BD68
:1008E000A21B31463868BDE8F84000F07CBB70B50B
:1008F0000646FFF7ADFF056806F10B0020F0070480
:10090000B4429CBF002070BD2B466A68BAB1106823
:10091000A04210D304F1080188423CBF50685860DF
:1009200007D35168101941601168091B01605860B4
:100930001460101D70BD13465268002AE7D121468D
:100940002846FFF791FF0028DED170BD70B5044640
:10095000051FFFF77DFF0068002C14BF446870BDC1
:10096000002C18BFAC423CBF20466468F8D3016835
:100970000A18AA4218BF456003D12A6805461144E7
:10098000016028684119A1421CBF6C6070BD61689C
:10099000696021680844286070BD10B500F018FB3C
:1009A000006810BD10B5044600F012FB046010BDD5
:1009B0002DE9F0470D4699469246044600F1240879
:1009C0000168880604D5E06921F01001216000E08B
:1009D0000120A84201DD471B00E00027A1697A1928
:1009E00002EB0900081AA0612078C00602D4204654
:1009F000AFF30080002608E0D4E901211AF80600D0
:100A00009047206A401C761C20624E45F4DB20781B
:100A1000C0060AD52046AFF3008006E0D4E90121E4
:100A200030209047206A401C2062381EA7F1010741
:100A3000F4DC07E0D4E9012118F805009047206AAA
:100A4000401C2062281EA5F10105F3DC2046AFF30F
:100A500000802078000602D50220BDE8F087012042
:100A6000FBE770472DE9FF4F0C461E464FF0FF375E
:100A70008BB0D2E90001DDF860800A908A46C1F3AC
:100A80000A5505B93D46002108464FF00000BAF16D
:100A9000000F00F4400005DA00EB80004FF4400145
:100AA00001EA50004FEA9059B9F1010F00DDB94653
:100AB0000A9850EA4A000ED044F61050A5F2FF35CD
:100AC00045432F14B8F1000F1ED07542291E1EDDBC
:100AD000C9F100021CE0B8F1010F4FF0000001D095
:100AE000302103E0F24305E02154401CB042FBDB1F
:100AF00030460022002121540B99C1F80880C1E939
:100B000000200FB0BDE8F08FBD1B6D1CDEE74A462C
:100B100000DA694206A800F005FB06AB93E807007F
:100B200003AB83E8070050460A9900F07EFC8DE88D
:100B30000700A0F500501F3800900398002D09DD34
:100B400042F21F014A46084403A90390684600F098
:100B5000DDFE08E0A0F500504A461F3803A90390C7
:100B6000684600F0E7FE8DE807000004000C03D0A3
:100B70004FF0FF30410800E01046B8F1000F03D0FD
:100B80000022009215461EE0751E05D400F045FABD
:100B9000303262556D1EF9D5B3460122084302D0AA
:100BA00000227F1C04E02078302801D100227F1E23
:100BB000002A099786D01DE0112D07DA00F02DFAE2
:100BC000303262556D1C50EA0102F5D1084302D063
:100BD0000098C8B10EE00021681E05E0235C625C4D
:100BE00063542254401E491C8142F7DBAB46A81BCC
:100BF000401E0990002004F80B000B98099AC0F8D9
:100C00000880C0E9002B7CE711264FF0000859E767
:100C10002DE9F04F88460446D21D22F0070191B01D
:100C2000D1E90001CDE90A010BF0D6FF02460B988D
:100C3000C00F01D02D2007E02068810701D52B20AF
:100C400002E0202101EAC000032A099001D0072A0E
:100C500005DB03464146204600F024FA0BE12078EC
:100C6000800601D5E06900E00620B8F1650F8146F5
:100C700006D0B8F1660F18D0B8F1670F70D131E027
:100C80000020B9F1110F009001DB112301E009F1FF
:100C900001030AAA01A90CA8FFF7E4FEDDE90C7024
:100CA000002609F10105834647E001204B460090EC
:100CB0004FF000470AAA01A90CA8FFF7D3FEDDE90F
:100CC0000DB00C995D46002610B909F101000D1810
:100CD000B9EB050003D4C0F1FF3609F10105A5EB1E
:100CE00009002BE0B9F1010F01DA4FF001090020F2
:100CF000B9F1110F0090484601DD112300E00346D1
:100D00000AAA01A90CA8FFF7ADFEDDE90C704D465B
:100D100000268346207800070AD4AB4500DA5D46FA
:100D200001A8012D04DD411911F8011C302907D05B
:100D30004F4502DA17F1040F04DA012082460FE072
:100D40006D1EEEE7002F02DCED1B3E4403E0781C35
:100D5000A84200DD7D1CB81B00F1010A4FF00047DE
:100D60002078000703D4AA4501DB4FF0FF3A0021A9
:100D7000B7F1004F0DF143088DF8431024D0022045
:100D80002B23002F01DA7F422D230A21021EA0F11E
:100D9000010000DC5FB197FBF1FC97FBF1F201FB76
:100DA0001C7C17460CF1300C08F801CDEEE7A8F1D9
:100DB000010003702188090501D5452100E0652166
:100DC000A0F1010800F8011C09980FA9A1EB080780
:100DD000FF1D00B10120411901EBEA70A1693844FF
:100DE000081A401EA0612078C00602D42046AFF346
:100DF0000080099828B1D4E901219047206A401C5D
:100E000020622078C00622D52046AFF300801EE085
:100E1000002E04DBB34502DD01A8805D00E0302038
:100E2000D4E901219047206A401C2062761CAAF177
:100E300001005FEA000A0AD100F0C2F8C068016848
:100E4000405CD4E901219047206A401C2062281EA2
:100E5000A5F10105DCDC07E0D4E9012118F8010B5C
:100E60009047206A401C2062381EA7F10107F3DC7E
:100E70002046AFF30080032011B043E601694A1C0D
:100E800002610878704700B58FB0CDE901310021CB
:100E9000059105497944CDE9031011466846FFF7ED
:100EA000F7FA0FB000BD0000E5FFFFFF0A6802F887
:100EB000010B0A60704710B5436913B1AFF30080AE
:100EC00001E0FFF77FFA012010BD127800F1240144
:100ED0000A7000224A700122EDE711684FF0FF32DC
:100EE000E9E710B5002000F090F9FFF7C4F9BDE87C
:100EF0001040012000F05AB82DE9F0410646FFF7F6
:100F0000ABFC8046454613E016B1E068B0420ED116
:100F100020682860D4E90101D8F80070884720468D
:100F2000FFF714FDD8F80000B842EBD100E02546E9
:100F30002C68002CE8D1BDE8F08110B500F074F900
:100F4000BDE8104000F05CB910B5203AC0F00B804D
:100F5000B1E81850203AA0E81850B1E81850A0E8BD
:100F60001850BFF4F5AF5FEA027C24BFB1E8185017
:100F7000A0E8185044BF18C918C0BDE810405FEA87
:100F8000827C24BF51F8043B40F8043B08BF704703
:100F9000D20728BF31F8023B48BF11F8012B28BF08
:100FA00020F8023B48BF00F8012B70470149182088
:100FB000ABBEFEE72600020000487047F831002073
:100FC0000048704718320020004870472C3200203B
:100FD00000487047F831002000210160C0E901108D
:100FE000704710207047034640688C46002818BFA1
:100FF00088423CBF03464068F8D3186818448842CA
:1010000007D00CF1030020F00700001D411A521A0E
:101010000146081D0A60FFF799BC30B5B0F10A021D
:101020004FEA900E71F100034EEA817EB0EB0E00A4
:1010300061EB91014FEA101E4EEA017E10EB0E00AB
:1010400041EB11114FEA102E4EEA016E10EB0E002B
:1010500041EB11214FEA104E4EEA014E10EB0E000B
:1010600041EB1141401841F100014FEAD00040EA44
:1010700041704FEAD10110EB80054FEA810444EA48
:10108000907444EB01046D1944EB0404521BA3411A
:101090004FF0000348BF0A3200D530BD401C41F17B
:1010A000000130BD2DE9F0411F46044603260168CA
:1010B000072A01F4006004DB08B116A505E016A5B7
:1010C00003E008B115A500E015A521F0100020608F
:1010D000A069C01EA0610FB1401EA0612046AFF301
:1010E00000804FB1D4E9012138469047206A401C66
:1010F0002062C01C206206E0206AFAE7D4E90121E0
:1011000015F8010B9047761EF8D22046AFF3008009
:10111000BDE8F0814E414E006E616E00494E4600C2
:10112000696E66002DE9F047814616468AB033485D
:1011300078440DC88DE80D0030487844801C03AC1D
:101140000DC884E80D0041F69B300844372190FB20
:10115000F1F290FBF1F5A5F1800501FB12041B3CB7
:1011600002D56442012000E00020DFF890A0804614
:101170000027FA44AAF1BE0A0DE0E00709D0324682
:10118000684607EB47010AEB810100F0D3FB8DE8CD
:10119000070064107F1C002CEFD1184F7F44AC3F38
:1011A00018E0E80714D007EB04100DF1180A90E8D6
:1011B0000E008AE80E00C068F04201D1981908902C
:1011C000324606A903A800F0B5FB03AB83E807008D
:1011D0006D10641C002DE4D132466946B8F1000F51
:1011E00003A802D000F092FB01E000F0A3FBC9E9E4
:1011F0000001C9F808200AB0BDE8F087F8F900003E
:10120000002801D0FFF7D2BE704710B500F0A8F853
:10121000BDE81040FFF7F4BF10B500F0B9F8BDE825
:101220001040FFF7EDBF000010B5002102A000F054
:101230007EF8012010BD00005349475056464E3AF3
:101240002050757265207669727475616C20666EC7
:101250002063616C6C656400AFF3008010B500F032
:101260000EF8016919B100220261884701E0806827
:101270008047FFF736FE000010B5FFF732FE70B56D
:1012800000F048F804680546A4B92020FFF72FFBBA
:10129000040011D0094900202C60C4E9000108496C
:1012A000A1602073206160610649A06109B100F06E
:1012B00097F8E061204670BDFFF713FE00000000C4
:1012C000791200080000000070477546FFF774FEB1
:1012D000AE4605006946534620F00700854618B023
:1012E00020B5FEF7EBFFBDE820404FF000064FF0C1
:1012F00000074FF000084FF0000B21F00701AC464B
:10130000ACE8C009ACE8C009ACE8C009ACE8C00969
:101310008D467047004870473432002010B50446AF
:10132000AFF300802046BDE81040FEF7B2BF70B5B5
:1013300005460C460A2000E06D1C00F06FF835B140
:1013400028780028F8D102E0641C00F067F814B196
:1013500020780028F8D1BDE870400A2000F05EB87F
:1013600010B5002102A0FFF7E2FF012010BD000030
:10137000534947414252543A2041626E6F726D6147
:101380006C207465726D696E6174696F6E00000027
:1013900010B5012805D0002103A0FFF7C8FF0120E8
:1013A00010BD09A1F8E7000053494752544D454D7F
:1013B0003A204F7574206F662068656170206D65F6
:1013C0006D6F7279000000003A2048656170206DF1
:1013D000656D6F727920636F7272757074656400E9
:1013E00010B58820FFF783FA002801D00021017092
:1013F00010BD802902D808B1017809B100207047DA
:10140000012100F8081B704718B100F10802914251
:1014100001D00020704700210170704708B569466F
:101420008DF800000320ABBE08BD5FEA400C08BF8A
:1014300091F0000F4FEA8C234FEAC12243EA515149
:101440004FEA1C5018BF00F5F0404FEA300018BFBB
:1014500041F000415FEA6C5C00F02980BCF1FF3F85
:1014600008BF40F080407047130C06BF12044FF0D5
:10147000100C4FF0000C130E04BF12020CF1080CFC
:10148000130F04BF12010CF1040C930F04BF920060
:101490000CF1020CD30F04BF52000CF1010C1146E9
:1014A0004FF00002A0F11F00A0EB0C00704711F0FC
:1014B000004F08BF704731F000413FF4D5AF0B0C2F
:1014C00006BF09044FF0100C4FF0000C0B0E04BFC8
:1014D00009020CF1080C0B0F04BF09010CF1040CFC
:1014E0008B0F04BF89000CF1020CCB0F04BF490025
:1014F0000CF1010CCCF12003A0EB0C0022FA03F359
:1015000002FA0CF241EA030100F10100704720F0F9
:101510007F4C80EA030023F07F47ACEB070303F521
:101520007C5300F0004003F1FF032DE980494FEAAE
:10153000154B09B44FEA144325EA0B4E24EA03483D
:101540000FF2042606EB132749083E785FEA3202C1
:1015500003FB0667C7F5000707FB06F64FEA54379B
:101560004FEAD64606F1020607FB066CCCF1005C9A
:101570004FEA1C472CEA074C07FB06F40CFB06F568
:1015800004EB15464FEA961634BF00204FF000409A
:101590004FEAD13706FB07FC4FEA1C4C0CFB0BF75C
:1015A000D21B03FB0CF761EB07010CFB0EF7B0EB52
:1015B000074072EB17420CFB08F734BFA2EB07425F
:1015C000B2EB074261EB17414FEA0C444FEA910737
:1015D00006FB07FC4FEA1C4C0CFB0BF7B0EBC740BB
:1015E00072EB573203FB0CF734BFA2EBC742B2EBEE
:1015F000C74261EB57310CFB0EF7B0EBC70072EB43
:1016000057720CFB08F734BFA2EBC702B2EBC7025C
:1016100061EB5771039F4FEA816141EA921104EB3C
:10162000CC044FEAD1374FEA826206FB07FC42EA5C
:1016300090124FEA80604FEA1C4C0CFB0BF7D21B58
:1016400003FB0CF761EB07010CFB0EF7B0EB074057
:1016500072EB17420CFB08F734BFA2EB0742B2EB68
:10166000074261EB17414FEA8C554FEA910704EBB3
:101670009C2406FB07FC4FEA1C4C0CFB0BF7B0EB61
:10168000C74072EB573203FB0CF734BFA2EBC742E3
:10169000B2EBC74261EB57310CFB0EF7B0EBC70062
:1016A00072EB57720CFB08F734BFA2EBC702B2EB28
:1016B000C70261EB577115EB4C254FEA816141EA96
:1016C00092114FEA82624FEAD13742EA901206FB4A
:1016D00007FC44F100044FEA80604FEA1C4C0CFB0D
:1016E0000BF7D21B03FB0CF761EB07010CFB0EF7AA
:1016F000B0EB074072EB17420CFB08F734BFA2EBCC
:101700000742B2EB074261EB174115EB1C154FEA9C
:10171000813141EA92414FEA823242EA90424FEAF5
:1017200080304FEA0C7644F1000448EA03434EEA65
:101730000B484FF0000EB2EB080C71EB030724BF0F
:10174000624639464EEB0E0E4FF0000B0018524128
:1017500049414BEB0B0BB2EB080C71EB03077BF130
:10176000000B24BF624639464EEB0E0E4FF0000BC5
:101770000018524149414BEB0B0BB2EB080C71EBDB
:1017800003077BF1000B24BF624639464EEB0E0E79
:1017900051EA020718BF46F0010616EB0E7655F126
:1017A000000254F1000103D5BDE88901BDE80088BD
:1017B000BDE88901BDE80048B619524141EB01017D
:1017C000A3F10103704780807F7E7D7C7B7A7978EE
:1017D000777676757473727171706F6E6E6D6C6CF6
:1017E0006B6A6A6968686766666564646363626198
:1017F0006160605F5F5E5E5D5D5C5C5B5B5A5A5919
:101800005958585757565655555554545353525284
:101810005251515050504F4F4F4E4E4D4D4D4C4CDC
:101820004C4B4B4B4A4A4A49494948484847474725
:101830004746464645454544444444434343434262
:10184000424242414141002B26D4770021D01CB5B1
:101850004FEA370703B44FF010004FF010014FF07C
:1018600000000FBCBDE810400BF1010BBBF1010FF4
:1018700008BF5FEA170722BF12F1010211F101014F
:101880004FF0004143F1000300F0004043EA000044
:101890007047F9D35708DAE746EA064613F1400FD6
:1018A0004FEA16461FDD13F1200FDFBF16430A462D
:1018B000002120335B42C8D0C3F1200746EA064628
:1018C00002FA07F74FEA164646EA0706C3F1200771
:1018D00022FA03F201FA07F721FA03F14FF00003AD
:1018E00042EA0702B1E746EA020646EA06464FEA3E
:1018F000164646EA0106BCBF46EA0646360C4FF0DD
:1019000000034FF000024FF000019EE72DE9C048B0
:10191000934630B491E8380007C831EA400C48BF1C
:1019200034EA430C03D5FFF7F2FDFFF78CFFF0BC60
:10193000BDE800882DE9C048934630B491E83800EE
:1019400007C810F0804F08BF13F0804F03D100F09C
:1019500005F8FFF778FFF0BCBDE8008820F07F476E
:1019600080EA030023F07F4C07EB0C03A3F57C53C4
:1019700000F00040A3F1FE0392F0000F00F0B380EE
:1019800095F0000F00F077802DE901494FEA1140F2
:101990004FEA144621EA004800FB06FC24EA064709
:1019A00008FB06F607FB08F800FB07F718EB0648EC
:1019B0004CEB164C4FEA124B18EB07484FEA154612
:1019C0004CEB174022EA0B4E0BFB06FC25EA0647C0
:1019D0000EFB06F607FB0EFE0BFB07F71EEB064E93
:1019E0004CEB164C4FF000061EEB074E4CEB174B22
:1019F00018EB0B0840F1000018EB0E0B58EB000839
:101A000040F100008F1A4FF000013CBFC943661B34
:101A100014BFB5EB040C00213CBFC943F61B4FEAD1
:101A200017444EEA8E0E27EA04454FEA1C4704FB92
:101A300007622CEA074C05FB07F70CFB05F604FBD5
:101A40000CFC16EB074642EB174216EB0C4642EB3A
:101A50001C421BEB060658EB0202414146EA9E0679
:101A600001D5BDE80189B619524141EB0101A3F14D
:101A70000103BDE801894FEA14454FEA114724EA02
:101A8000054621EA074C05FB07F406FB07F70CFBAC
:101A900006F105FB0CFC11EB074144EB17444FEA40
:101AA000124711EB0C4144EB1C4422EA074C05FBA6
:101AB00007F206FB07F70CFB06F605FB0CFC16EB22
:101AC000074642EB174216EB0C4642EB1C456A18E0
:101AD00054F1000148BF7047B619524141EB010172
:101AE000A3F10103704795F0000F37D04FEA114280
:101AF0004FEA144721EA024624EA074C02FB07F1A9
:101B000006FB07F70CFB06F402FB0CFC14EB074486
:101B100041EB17414FEA154714EB0C4441EB1C41D4
:101B200025EA074C02FB07F506FB07F70CFB06F658
:101B300002FB0CFC16EB074645EB174516EB0C4673
:101B400045EB1C42121951F1000148BF7047B6190C
:101B5000524141EB0101A3F1010370474FEA1445E3
:101B60004FEA114724EA054621EA074C05FB07F135
:101B700006FB07F70CFB06F24FF0000605FB0CFC1A
:101B800012EB074241EB174112EB0C4251EB1C41A7
:101B900048BF7047921841EB0101A3F10103704760
:101BA00021B1826842F00102826003E0826822F083
:101BB00001028260704700000021084A1168084A4B
:101BC0001140D0E900231A4383681A43C3681A43BB
:101BD0001143044AC2F80413704700000423014073
:101BE000E030FCFF0020014021B1826842F48072A5
:101BF000826003E0826822F480728260704721B1C3
:101C0000826842F40072826003E0826822F400720B
:101C10008260704730B50246002000235068104CA7
:101C200020400D790C6844EA0524204350609068F8
:101C30000C4C2040D1E903542C438D682C434D7942
:101C400044EA450420439060D06A20F470000C7D83
:101C5000641EE4B2234340EA0350D06230BD00006A
:101C6000FFFEFFFCFDF7FFC0F0B504460D46002067
:101C70000021092D11DDE068A5F10A0606EB4607F3
:101C8000072606FA07F18843A5F10A0606EB460681
:101C900003FA06F10843E0600CE0206905EB450714
:101CA000072606FA07F1884305EB450603FA06F115
:101CB00008432061072A0FDA606B561E06EB860781
:101CC0001F2606FA07F18843561E06EB860605FA1C
:101CD00006F10843606322E00D2A0FDA206BD61F5D
:101CE00006EB86071F2606FA07F18843D61F06EB88
:101CF000860605FA06F10843206310E0E06AA2F1C7
:101D00000D0606EB86071F2606FA07F18843A2F1A7
:101D10000D0606EB860605FA06F10843E062F0BD03
:101D2000816841F080418160704700BFFEE700009C
:101D300010B58AB018A103C9CDE9040102A806A90B
:101D400007AB08AACDE9001009A9002000F02CF883
:101D500000240FE0072C04D102A8005D1049087090
:101D60000AE002A8005D04A9095D884200D003E0F2
:101D7000601CC4B2072CEDDD00BF40F221110998B0
:101D8000884207D10648007820B1064802990160D0
:101D9000039941600AB010BD0A0C0F13181E2500EC
:101DA0001801002008010020F0B5DDE90554324E8D
:101DB00006EB0016366806F004061670167836B97B
:101DC0002D4E06EB00163668760D0E6005E02A4EA5
:101DD00006EB00163668F6080E60274E06EB001676
:101DE000366806F002061E70234E06EB0016766873
:101DF00006F00F062E70204E06EB0016B668267011
:101E00001D4E06EB0016B668360A66701A4E06EBD3
:101E10000016B668360CA670174E06EB0016B668AC
:101E2000360EE670144E06EB0016F6682671124E5A
:101E300006EB0016F668360A66710F4E06EB0016C2
:101E4000F668360CA6710C4E06EB0016F668360ED8
:101E5000E67130B9094E366846F02006074F3E60FD
:101E600009E0012807D1054E361D366846F02006E8
:101E7000024F3F1D3E60F0BDB06500400C64004065
:101E800070B506460C4604F08000802808D104F0A6
:101E90007F0000EB800106F58E7000EBC10507E0C6
:101EA00004F07F0000EB800106F55D7000EBC105DA
:101EB00004F07F00287004F08000C0096870294693
:101EC000304603F093FB002070BD70B506460C460B
:101ED00004F08000802808D104F07F0000EB80012E
:101EE00006F58E7000EBC10505E004EB840106F5F4
:101EF0005D7000EBC1050020A87004F07F00287021
:101F0000C4F3C01068702946304603F047FB002038
:101F100070BD2DE9F04106460D4690461F4605F07E
:101F20008000802808D105F07F0000EB800106F5D5
:101F30008E7000EBC10407E005F07F0000EB80012C
:101F400006F55D7000EBC10405F07F00207005F020
:101F50008000C0096070C4F80880E770607808B13C
:101F60002078E080022F01D10020207121463046E8
:101F700003F0C8FA0020BDE8F0812DE9F0410546E4
:101F80000E461746984606F07F0000EB800105F5E7
:101F90005D7000EBC104E760C4F814800020A0610C
:101FA000607006F07F002070E878012800D127617A
:101FB000207820B92146284603F0C8F903E02146DD
:101FC000284603F074FB0020BDE8F08108B500222C
:101FD0000092009A61F30A12009202691268009B53
:101FE0001A4303691A6008BD70B506460C4604F032
:101FF0008000802808D104F07F0000EB800106F506
:102000008E7000EBC10505E004EB840106F55D7000
:1020100000EBC1050120A87004F07F002870C4F314
:10202000C01068702946304603F00FFB002070BDD9
:102030002DE9F04107460D461646984605F07F000B
:1020400000EB800107F58E7000EBC1040120607089
:1020500005F07F002070E66026610020A061C4F8D2
:102060001480207820B92146384603F06FF903E048
:102070002146384603F01BFB0020BDE8F0811CB56B
:102080000446204603F02DF9E068C0680090204621
:1020900003F0D0FC03280BD10020A0704FF4007097
:1020A000A080009820F4705000F51050009009E0D6
:1020B0000120A0704020A080009820F4705000F50E
:1020C000A05000900098E168C8600020019001983D
:1020D00020F4005000F5005001900198E16848613B
:1020E00001201CBDF8B505460024002000902846BC
:1020F00003F0DFFC064690E006F0010000287DD0EA
:10210000E1B2284600F002FB0090009800F00100C8
:1021100030B3012000FA04F72869406BB8432969FD
:10212000486300200090009820F00100401C0090BF
:1021300005F1180050F8240000998160E1B2394897
:102140000068426828469047E878012808D13CB9E1
:1021500040F21110405D042802D1284603F0A1F995
:102160000098C0F3C00060B100200090009820F0FB
:1021700008000830009005F1180050F8240000997C
:1021800081600098C0F3001060B1002000900098BA
:1021900020F010001030009005F1180050F82400D5
:1021A000009981600098C0F3801060B10020009019
:1021B000009820F040004030009005F1180050F8E1
:1021C0002400009981600098C0F3400060B10020B5
:1021D0000090009820F00200801C009005F118008B
:1021E00050F82400009981600098C0F3C01028B115
:1021F0002146284600F09EFA002000E00BE0009007
:10220000009820F080008030009005F1180050F810
:10221000240000998160641C7608002E7FF46CAF66
:102220000120F8BDEC0300207CB504460025002009
:102230000190204603F045FC06466FE006F00100E1
:10224000002869D0E9B2204603F043FC01900198D0
:1022500000F00100C8B300200190019820F00100B7
:10226000401C019004F1540050F825000199816050
:10227000E078012817D104F1540050F825000069D6
:10228000009005EB850104F55D7000EBC1008068EE
:102290000099C1F31201411A05EB850204F55D7046
:1022A00000EBC2008161E9B21E4800680268204666
:1022B0009047E078012808D13DB940F21110005D47
:1022C000052802D1204603F0ECF80198C0F3400045
:1022D00060B100200190019820F00200801C019064
:1022E00004F1540050F82500019981600198C0F371
:1022F000C00088B10B4800688168204688470020EC
:102300000190019820F008000830019004F1540079
:1023100050F82500019981606D1C7608002E8DD142
:1023200001207CBDEC0300203EB50446A07A70B1CC
:10233000D4F80C010090009820F002000090009862
:1023400020F0010000900099D4F80C0101600020F9
:102350000190019820F00100401C01902069406824
:1023600001998843216948600848006881692046CE
:10237000884700200290029820F0004000F10040C1
:1023800002900298E168486101203EBDEC03002004
:102390007CB5044600200190019820F01000103018
:1023A0000190E068806901998843E1688861E0688C
:1023B000006A0090009800F00F0000EB800104F527
:1023C0005D7000EBC1050098C0F3434007282DD293
:1023D000DFE800F02C04051D1E2C1F0027E00098EC
:1023E000C0F30A1090B10098C0F30A122046E968C1
:1023F00003F079FBE8680099C1F30A110844E8602A
:10240000A8690099C1F30A110844A8610FE00EE021
:102410000DE0082204F2CC51204603F064FBA869C9
:102420000099C1F30A110844A86100E000BF00BF91
:10243000E068806901990843E168886101207CBDFA
:1024400038B5044608480068C1682046884700201F
:102450000090009820F00800083000900098E16893
:102460004861012038BD0000EC0300201FB5044680
:10247000002000904FF48970005D009023480068B0
:1024800041692046884720698068019000200390B8
:10249000039820F4006000F5006003900398E16861
:1024A0004861A07A70B3019800F0010050B340F287
:1024B0001510005D012825D19DF80000032821D1C9
:1024C00000200290029820F00100401C0290D4F8F5
:1024D0000C01006802990843D4F80C1108600298B6
:1024E00020F00200801C0290D4F80C0100680299D0
:1024F0000843D4F80C1108600548006840F0060055
:1025000003490860012004B010BD0000EC03002066
:1025100010ED00E030B587B0044600200290069030
:102520000590049003900190029820F00100401C57
:10253000029020694068029988432169486000211F
:10254000204603F04DFA00250BE0FF2104F11800AE
:1025500050F82500816004F1540050F82500816096
:102560006D1C6078A842F0D84FF0FF31206981617E
:1025700006986FF30F00401C0690069880B200F595
:102580008030069006992069C161059820F0080006
:1025900008300590059820F00100401C0590059832
:1025A00020F00200801C0590059920694161049883
:1025B00020F00100401C0490049820F0080008302E
:1025C0000490049820F00200801C04900499206973
:1025D0000161206900680390039820F4FE60039075
:1025E000039920690160204602F05BFF0020019002
:1025F000019820F4805000F5805001900198E16826
:10260000486104480068016920468847012007B0F6
:1026100030BD0000EC0300202DE9F04106460F46D6
:102620003946304603F074FA01214FF48970815520
:102630000021801C8155002511E005EB850106F580
:102640008E7000EBC104012060702570E5800020D1
:10265000E0704020A0600020E06060616D1C707838
:10266000A842EAD8002510E005EB850106F55D706B
:1026700000EBC104002060702570E580E070402010
:10268000A0600020E06060616D1C7078A842EBD80B
:10269000304602F015FE304602F040FC0021304684
:1026A00003F09EFA304602F0CCFC304603F061F9AC
:1026B000BDE8F08138B50446002000900748006866
:1026C000C16920468847009820F4801000F58010EA
:1026D00000900098E1684861012038BDEC030020BB
:1026E00038B504460020009007480068016A20467B
:1026F0008847009820F4001000F500100090009822
:10270000E1684861012038BDEC03002030B5024685
:1027100015692B6915696C6B24FA01F505F0010543
:1027200043EAC51302F1180555F82150AD6805EAD2
:10273000030030BD2DE9F84307460E460025002072
:10274000009006EB860107F58E7000EBC104D4E91A
:102750000501451AA068A84200D2A568E81C4FEA06
:10276000900807F1180050F82600806900901BE0DF
:10277000D4E90501451AA068A84200D2A568E81C62
:102780004FEA9008ABB2F2B23846E16803F06AFA59
:10279000E0682844E060A0692844A06107F11800BF
:1027A00050F8260080690090009880B2404506D914
:1027B000D4E90510884202D260690028D8D10120EE
:1027C000BDE8F88310B50949094800F061F958B12E
:1027D0000021074800F078F84FF0C051044800F09D
:1027E00059F800200349087010BD0000008000184F
:1027F000586002407E02002010B50849084800F0E9
:1028000047F950B10021064800F05EF80549044838
:1028100000F040F800200449087010BD208000201E
:1028200070600240200000206C02002010B50849B2
:10283000084800F02DF950B10021064800F044F896
:102840000549044800F026F800200449087010BD2E
:1028500000802020A060024000002020780200209C
:1028600010B50949094800F013F958B1002107488B
:1028700000F02AF84FF02051044800F00BF8002037
:102880000349087010BD000000800028B8600240B5
:10289000720200200246094B9A4201D2084801E028
:1028A0000648103801F000531BB1064B0B40C360C3
:1028B00002E0044B0B40836070470000106402404C
:1028C000006002407D0F7D0F21B1026842F00102DD
:1028D000026003E0026822F001020260704700001B
:1028E000016821F001010160002101604160816007
:1028F000C1600161212141614A49884204D13D21E1
:10290000484A103A91608CE046491831884205D116
:102910004FF47461434A103A916082E0414930318A
:10292000884205D14FF474113E4A103A916078E024
:102930003C494831884205D14FF07461394A103A18
:1029400091606EE037496031884204D13649354A9A
:10295000103AD16065E033497831884204D1334977
:10296000304A103AD1605CE02E499031884204D15F
:102970002F492C4A103AD16053E02A49A8318842A5
:1029800005D14FF03D51274A103AD16049E029491D
:10299000884204D13D21274A083A116041E0254987
:1029A0001831884205D14FF47461224A083A116007
:1029B00037E020493031884205D14FF474111D4A67
:1029C000083A11602DE01B494831884205D14FF08B
:1029D0007461184A083A116023E016496031884250
:1029E00004D11149134A121F11601AE011497831BC
:1029F000884204D10D490F4A121F116011E00D49A0
:102A00009031884204D10A490A4A121F116008E035
:102A10000849A831884204D14FF03D51054A121FA0
:102A200011607047106002403D000020400F002000
:102A300000003D2010640240014600200A6802F0B8
:102A400001020AB1012000E00020704730B50346C2
:102A50000A46002000240B4DAB4201D20A4901E096
:102A60000849103902F000550DB14C6800E00C68BF
:102A7000064D2C4004EA02050DB1012000E00020C3
:102A800030BD000010640240006002407D0F7D0FE9
:102A900070B50246002000240025124EB24201D239
:102AA000114B01E00F4B103B104E0E4036B11E266D
:102AB00006EAD124166806EA040502E0566906F023
:102AC000800501F000560EB15C6800E01C68084EFD
:102AD000344004EA010616B10DB1012000E00020E7
:102AE00070BD000010640240006002403C0F3C0FCB
:102AF0007D0F7D0F10B501F080034BB122B143690A
:102B000043F08003436103E0436923F080034361A2
:102B100080290BD02AB1036801F01E04234303600F
:102B200004E0036801F01E04A343036010BD00002D
:102B300010B500220268134B1A40CC680B6823437F
:102B40004C6923438C692343CC6923430C6A234398
:102B50004C6A23438C6A23434C6B23438C6B234383
:102B60001A430260426922F00702D1E90B34234381
:102B70001A4342610B6943604B6883608B68C36092
:102B800010BD00003F801CF041607047704700009E
:102B90000149086070470000143C0140F0B50A4646
:102BA00000210023002400BF3DE0012505FA01F3C8
:102BB000156805EA03049C4234D105684F000326DA
:102BC000BE40B543056015794E00B54006683543F3
:102BD00005601579012D02D01579022D16D1856871
:102BE0004F000326BE40B543856055794E00B54081
:102BF000866835438560456801268E40B54345604B
:102C0000456896798E40B6B235434560C5684F0039
:102C10000326BE40B543C560D5794E00B540C668B1
:102C20003543C560491C1029BFD3F0BDF0B5002362
:102C300000244D07ED0E02FA05F3CE1000F1200539
:102C400055F826504E07F70E0F26BE40B543CF105D
:102C500000F1200646F82750CE1000F1200555F867
:102C6000265045EA0304CE1000F1200545F8264021
:102C7000F0BD0246002013690B400BB1012000E0BB
:102C800000207047418370470183704770B5064646
:102C90002C480078012852D02B480068B0F5006F0E
:102CA00002D10020284908602748006827490968A0
:102CB000884203D100202349087070BD2248006873
:102CC00022490968884206D91F480068C0F500609B
:102CD0001F49086006E01D4800681B490968401A42
:102CE0001B4908601A48006840280ED91648008819
:102CF00084B24025144800684030134908601448E5
:102D000000684038124908600FE00F48008884B21C
:102D10000F48008885B20C4800680D4909680844CE
:102D20000949086000200A49086001200549087027
:102D3000084802192B4681213046FFF779F900BF78
:102D4000BBE700003C0300203403002030030020D8
:102D500038030020F828002000BFFEE700BFFEE790
:102D60007047000070B5002100230F22C4781CB307
:102D7000174C246804F4E064C4F5E064C4F307214C
:102D8000C1F10404E3B20A4144789C40E1B2847882
:102D9000144021430C07210E0E4C05786155047830
:102DA00004F01F050124AC4005786D11AD0005F15C
:102DB000E025C5F8004109E0047804F01F0501246E
:102DC000AC40054D0678761145F8264070BD0000F0
:102DD0000CED00E000E400E080E100E00249014386
:102DE000024A1160704700000000FA050CED00E097
:102DF00010B5024801F02EFC10BD00009408002020
:102E000010B50948807A50B10848006820F00600E3
:102E10000649086000F0B6FA034802F008FF4FF4D4
:102E20008020FFF7B5FE10BD9408002010ED00E0F3
:102E300038B504460120009000201D49487001204B
:102E400000902DE0BDF80000204018B10120194984
:102E5000086002E000201749086001201649086058
:102E600005200BF067F900201449C1F8BC020520C9
:102E70000BF060F901201149C1F8BC020846D0F8F6
:102E8000280230B10A484078BDF8001008430849CC
:102E90004870BDF800004FF6FF7101EA4000009055
:102EA000BDF80000FF28CDDD10200BF043F938BD40
:102EB000DC260020AC824042BC024242000042427A
:102EC00010B500201349086010200BF033F90120E1
:102ED000FFF7AEFF4320FFF7ABFF0020FFF7A8FF8F
:102EE0000120FFF7A5FF0020FFF7A2FF0020FFF75A
:102EF0009FFF0020FFF79CFF0020FFF799FF0020B5
:102F0000FFF796FF01200449C1F8A80210200BF03A
:102F100011F910BDA88240420080404210B5002047
:102F20001349086010200BF005F90120FFF780FF1E
:102F30004320FFF77DFF0020FFF77AFF0020FFF717
:102F400077FF5A20FFF774FF5A20FFF771FF5A20CE
:102F5000FFF76EFF5A20FFF76BFF5A20FFF768FF5D
:102F600001200449C1F8A80210200BF0E3F810BDBD
:102F7000A8824042008040421CB50121122000F08E
:102F8000A3F84FF40040009001208DF804000020C9
:102F90008DF8060003208DF8050001208DF807004C
:102FA00069461848FFF7FAFD4FF400411548FFF74E
:102FB0006BFE4FF44060009001208DF8040000206B
:102FC0008DF8060003208DF8050001208DF807001C
:102FD00069460D48FFF7E2FD4FF440610A48FFF7EC
:102FE00053FE4FF48060009000208DF80400032011
:102FF0008DF8050001208DF8070069460148FFF7AC
:10300000CDFD1CBD001002400004024010B500F0D0
:103010000BF800F009F800F007F8FFF751FF00F097
:1030200025F8FFF77BFF10BD10B500200D490860A3
:1030300010200BF07FF80120FFF7FAFE4220FFF787
:10304000F7FE0020FFF7F4FE0020FFF7F1FE00205E
:10305000FFF7EEFE01200449C1F8A80210200BF092
:1030600069F810BDA88240420080404210B500209F
:10307000124908600120FFF7DBFE4420FFF7D8FE6D
:103080000020FFF7D5FE0120FFF7D2FE0320FFF757
:10309000CFFE0020FFF7CCFE0020FFF7C9FE002086
:1030A000FFF7C6FE0020FFF7C3FE01200449C1F868
:1030B000A80210200BF03EF810BD0000A88240428C
:1030C000008040427047000029B1064A126802435E
:1030D000044B1A6004E0034A12688243014B1A60F1
:1030E000704700003038024029B1064A1268024396
:1030F000044B1A6004E0034A12688243014B1A60D1
:10310000704700003438024029B1064A1268024371
:10311000044B1A6004E0034A12688243014B1A60B0
:10312000704700004038024029B1064A1268024345
:10313000044B1A6004E0034A12688243014B1A6090
:10314000704700004438024029B1064A1268024321
:10315000044B1A6004E0034A12688243014B1A6070
:103160007047000024380240F0B5002100220024FE
:10317000022500260223324F3F6807F00C0121B1DF
:10318000042905D0082937D105E02E4F076036E025
:103190002D4F076033E02A4F3F1F3F68C7F380562B
:1031A000274F3F1F3F6807F03F036EB1264FB7FB25
:1031B000F3F7DFF88CC0ACF1040CDCF800C0CCF302
:1031C000881C07FB0CF40CE01E4FB7FBF3F7DFF88D
:1031D00070C0ACF1040CDCF800C0CCF3881C07FB19
:1031E0000CF4174F3F1F3F68C7F301477F1C7D005A
:1031F000B4FBF5F7076002E0124F076000BF00BFA5
:103200000F4F3F6807F0F0010909104F7A5C07681B
:10321000D74047600A4F3F6807F4E051890A0B4FD7
:103220007A5C4768D7408760054F3F6807F4604184
:10323000490B064F7A5C4768D740C760F0BD000075
:10324000083802400024F40000127A0060010020D7
:10325000704700000CB500200190009034480068D1
:1032600040F480303249086000BF3148006800F403
:10327000003000900198401C0190009818B9019806
:10328000B0F5A04FF1D12A48006800F4003010B129
:103290000120009001E0002000900098012846D114
:1032A00023484030006840F0805021494031086098
:1032B0002048006840F440401E4908601C4808301F
:1032C00000681B49083108600846006840F4004067
:1032D00008600846006840F4A05008601648091FBE
:1032E0000860081F006840F08070091F086000BF78
:1032F0000F48006800F000700028F9D040F2057017
:103300000E4908600A480830006820F003000849A8
:10331000083108600846006840F00200086000BFFD
:1033200003480830006800F00C000828F8D10CBDF4
:10333000003802400070004008544007003C024042
:103340000D480068401C0C4908600C4800684FF4A8
:103350007A71484308490968B1FBF0F200FB12108A
:1033600048B907480068401C0549086003480068E0
:10337000401C0249086070478C0200209002002027
:103380008802002010B51548006840F47000134909
:1033900008601348006840F00100114908600020EF
:1033A0000F49083108600E4800680E4908400C4972
:1033B00008600D48091D0860081F006820F480207F
:1033C000091F0860002006490C310860FFF742FF22
:1033D0004FF0006001498039086010BD88ED00E0C1
:1033E00000380240FFFFF6FE10300024F0B50C4616
:1033F000154600210022068C4FF6FE773E400684DB
:10340000018B028C4FF60C7631407E1C06EA0316C7
:103410002E4331434FF6F576324044F001063243F5
:1034200001830284F0BDF0B50C4615460021002250
:103430000026078C4FF6EF7C07EA0C070784018B08
:10344000028C4FF6FF7707EA041640F6FF47394033
:103450004FF6FF7707EA033739434FF6FF7707EA5E
:10346000052739434FF65F773A4046F010073A4355
:1034700001830284F0BDF0B50C4615460021002200
:103480000026078C4FF6FF6C07EA0C070784818B38
:10349000028C4FF6FF7707EA04264FF60C77394087
:1034A0004FF6FF7707EA03172F4339434FF2FF57D1
:1034B0003A4046F480773A4381830284F0BDF0B508
:1034C0000C461546002100220026078C4EF6FF7C94
:1034D00007EA0C070784818B028C4FF6FF7707EA17
:1034E000043640F6FF4739404FF6FF7707EA0527D5
:1034F00039434FF6FF7707EA0337394345F6FF773D
:103500003A4046F480573A4381830284F0BD00007C
:1035100010B50121064800F08EF840B101210448A1
:1035200000F047F803480068401C0249086010BDDD
:10353000001400402802002021B1028842F08002DD
:10354000028004E002884FF67F731A4002807047C1
:103550000A884B881A438B881A43CB881A430B89F5
:103560001A434B891A438B891A43A0F844207047A9
:1035700030B5002301248C40A3B2048C9C43048406
:10358000048C02FA01F5ADB22C43048430BD30B591
:10359000002304248C40A3B2048C9C430484048C38
:1035A00002FA01F5ADB22C43048430BDCA43028255
:1035B0007047CA430282704721B1028842F001027B
:1035C000028004E002884FF6FE731A4002807047C2
:1035D00031B1B0F8442042F40042A0F8442005E0A4
:1035E000B0F84420C2F30E02A0F844207047F0B5B2
:1035F0000C4615461E460021002200230189028B3D
:10360000038C4FF6F877394021434FF6FC473A4098
:1036100040F201173A434FF6DD773B404FF6FF7714
:1036200007EA06172F433B43018102830384F0BD61
:103630000146486A704730B5024600200023002446
:10364000158A05EA0103958905EA010413B10CB155
:10365000012000E0002030BD70B505460C462088F2
:1036600050B92389A28861882846FFF7BFFEE18808
:10367000284600F042F925E0208804280AD1238951
:10368000A28861882846FFF7CEFEE188284600F030
:103690003DF917E0208808280AD12389A28861888B
:1036A0002846FFF7E8FEE188284600F03CF909E0EB
:1036B0002389A28861882846FFF701FFE188284610
:1036C00000F03AF970BD0021018041800121818024
:1036D0000021C180018170471AB183890B43838126
:1036E00002E083898B4383817047000070B500241A
:1036F00000220023058C4FF6FE7635400584028CAF
:103700008388048B4FF68F752C40B51E2C400D8896
:103710002C43751E2A408D892A434D882A43104D1B
:10372000A84202D00F4DA84213D14FF6F7752A4098
:10373000CD892A434FF6FB752A408D882A434FF6E0
:10374000FF652B404FF6FF552B400D8A2B434D8ACA
:103750002B43838004838D684563028470BD000021
:1037600000000140000401400A460021018B4FF691
:10377000F7731940114301837047000070B50024AE
:1037800000220023058C4FF6EF7635400584028C2D
:103790008388048B48F6FF752C404FF6FF452C407C
:1037A0000D884FF6FF7606EA05252C434FF6DF75A8
:1037B0002A408D8906EA05152A434D8806EA051533
:1037C0002A43154DA84202D0144DA8421DD14FF6F0
:1037D0007F752A40CD894FF6FF7606EA05152A4304
:1037E0004FF6BF752A408D8806EA05152A434FF625
:1037F000FF352B404FF2FF752B400D8A06EA8505F9
:103800002B434D8A06EA85052B43838004838D680C
:103810008563028470BD0000000001400004014087
:103820000A460021018B4FF2FF7319404FF6FF73D8
:1038300003EA0223194301837047000070B5002496
:1038400000220023058C4FF6FF6635400584028C6C
:103850008388848B4FF68F752C404FF6FC752C4077
:103860000D882C434FF6FF552A408D894FF6FF7681
:1038700006EA05252A434D8806EA05252A43154D03
:10388000A84202D0144DA8421DD14FF2FF752A4024
:10389000CD894FF6FF7606EA05252A434FF6FF3518
:1038A0002A408D8806EA05252A434EF6FF752B40EF
:1038B0004DF6FF752B400D8A06EA05152B434D8A00
:1038C00006EA05152B43838084838D68C5630284D3
:1038D00070BD000000000140000401400A460021C4
:1038E000818B4FF6F7731940114381837047416311
:1038F000704781637047C1637047028B4FF6F37363
:103900001A400283028B0A4302837047028B4FF2F4
:10391000FF331A400283028B4FF6FF7303EA012341
:103920001A4302837047828B4FF6F3731A408283E7
:10393000828B0A4382837047828B4FF2FF331A4097
:103940008283828B4FF6FF7303EA01231A4382833B
:103950007047000000220288184B98420ED0184B86
:1039600098420BD0B0F1804F08D0164B984205D04A
:10397000154B984202D0154B984204D14FF68F73E5
:103980001A404B881A43124B984207D0114B984269
:1039900004D04FF6FF431A400B891A4302804B684C
:1039A000C3620B880385054B984202D0044B9842B2
:1039B00001D18B7A03860123838270470000014086
:1039C000000401400004004000080040000C0040DA
:1039D00000100040001400404FF0FF314160002112
:1039E00001800181418081727047000010B540F272
:1039F00024410F4800F0BDFAC0B100210D48FEF788
:103A000063FF0B4800880A48001D00880A490948DE
:103A1000FEF740FF4FF460710648FFF7B5F801214B
:103A20000448FEF751FF01200449087010BD000052
:103A3000004C00404060024000003D106D0200203C
:103A400010B540F224410E4800F093FAB8B10021BD
:103A50000C48FEF739FF0A480088094880880A495F
:103A60000848FEF717FF4FF460710648FFF78CF81F
:103A700001210448FEF728FF01200449087010BD09
:103A800000500040106002403D0080107302002092
:103A900010B50248006805F035FA10BD9402002008
:103AA00000B591B001214805FFF70EFB01228021EE
:103AB000414800F048FA012240213F4800F043FA13
:103AC0003E48FEF70DFF00BF3C48FEF7B5FF00285B
:103AD000FAD14FF0006002903748001D039038483B
:103AE00004904020059037480088069000200790F9
:103AF0004FF480600890002009900A900B904FF4DA
:103B000080300C9000200D9003200E9000200F902C
:103B1000109002A92948FFF70BF811208DF8040036
:103B200000208DF8050001208DF806008DF80700B3
:103B300001A8FFF717F9012210212048FEF7DAFF4C
:103B40001E481838FEF7CCFE00BF1C481838FEF798
:103B500073FF0028F9D14FF0006002901648001D55
:103B6000039019480490002005904FF4607006906F
:103B7000002007904FF480600890002009900A9080
:103B80000B904FF400300C9000200D9003200E900D
:103B900000200F90109002A908481838FEF7C8FFBF
:103BA000012106481838FEF78FFE002007490870EB
:103BB0000749087011B000BD00440040A0600240F9
:103BC000DC180020740200205C1C00207902002018
:103BD0007802002010B540F224410F4800F0C9F9E6
:103BE000C0B100210D48FEF76FFE0B4800880A485F
:103BF000001D00880A490948FEF74CFE4FF4607129
:103C00000648FEF7C1FF01210448FEF75DFE0120D2
:103C10000449087010BD0000004400408860024064
:103C2000400F00207902002010B588B00446012121
:103C30000820FFF749FA01214804FFF765FA6020E0
:103C4000069002208DF81C008DF81D0000208DF8D4
:103C50001E0001208DF81F0006A91D48FEF79EFFDB
:103C6000072205211A48FEF7E1FF0722062118481E
:103C7000FEF7DCFF02940020ADF80C00ADF80E005A
:103C8000ADF81000ADF814000C20ADF8120002A938
:103C9000104800F0BDF901210E4800F048F901225A
:103CA00040F224410B4800F08EF926208DF80400E4
:103CB00000208DF805008DF8060001208DF8070022
:103CC00001A8FFF74FF8FFF7EBFE08B010BD0000AA
:103CD000000C02400044004000B591B001214805AD
:103CE000FFF7F2F901228021414800F02CF901226E
:103CF00040213F4800F027F93E48FEF7F1FD00BFA4
:103D00003C48FEF799FE0028FAD14FF0006002907F
:103D10003748001D039038480490402005903748EC
:103D200000880690002007904FF4806008900020E3
:103D300009900A900B904FF480300C9000200D9069
:103D400003200E9000200F90109002A92948FEF742
:103D5000EFFE0E208DF8040000208DF805000120F4
:103D60008DF806008DF8070001A8FEF7FBFF012281
:103D700010212048FEF7BEFE1E483038FEF7B0FD89
:103D800000BF1C483038FEF757FE0028F9D14FF02D
:103D9000006002901648001D03901948049000200E
:103DA00005904FF460700690002007904FF48060FB
:103DB0000890002009900A900B904FF400300C906E
:103DC00000200D9003200E9000200F90109002A96B
:103DD00008483038FEF7ACFE012106483038FEF7BF
:103DE00073FD0020074908700749087011B000BD35
:103DF0000048004058600240DC1F00207A0200208A
:103E00005C2300207F0200207E02002010B540F2DB
:103E100024410F4800F0ADF8C0B100210D48FEF775
:103E200053FD0B4800880A48001D00880A490948CC
:103E3000FEF730FD4FF460710648FEF7A5FE012144
:103E40000448FEF741FD01200449087010BD000040
:103E50000048004028600240400F00107F02002010
:103E600010B588B0044601210820FFF72DF9012183
:103E70008804FFF749F94FF44070069002208DF84E
:103E80001C008DF81D0000208DF81E0001208DF80B
:103E90001F0006A91C48FEF781FE072208211A48C8
:103EA000FEF7C4FE072209211748FEF7BFFE029461
:103EB0000020ADF80C00ADF80E00ADF81000ADF824
:103EC00014000C20ADF8120002A9104800F0A0F870
:103ED00001210E4800F02BF8012240F224410B484A
:103EE00000F071F827208DF8040000208DF80500FF
:103EF0008DF8060001208DF8070001A8FEF732FFBB
:103F0000FFF7EAFE08B010BD000C02400048004078
:103F100010B50022002340F66A14A14200D100BF70
:103F20000A1201249440A3B2DC43048010BD21B1E5
:103F3000828942F40052828104E082894DF6FF7347
:103F40001A40828170471AB1838A0B43838202E050
:103F5000838A8B438382704702460020B1F5007F3D
:103F600000D100BF13880B400BB1012000E00020FE
:103F7000704770B50246002400230025002040F65B
:103F80006A16B14200D100BFC1F3421501F01F0310
:103F9000012606FA03F3012D02D19689334006E08B
:103FA000022D02D1168A334001E0968A33400C126A
:103FB000012606FA04F41688344013B10CB101202E
:103FC00000E0002070BDF0B5034600240026002567
:103FD000002040F66A17B94200D100BF1846C1F36D
:103FE000421401F01F06012707FA06F5012C01D142
:103FF0000C3004E0022C01D1103000E014301AB172
:1040000007682F43076002E00768AF430760F0BD11
:104010002DE9FF4705460E460024A14600BFA046F5
:10402000B08900B100BF2C8A24F44054F0880443C6
:104030002C82AC8941F20C608443B08831890843FA
:10404000718908430443AC81AC8A24F44074B0897C
:104050000443AC826846FFF787F82048854202D0C7
:104060001F48854202D1DDF80C9001E0DDF8089090
:10407000A88900F4004040B109EBC90000EB091029
:1040800031684900B0FBF1F707E009EBC90000EB2C
:10409000091031688900B0FBF1F76420B7FBF0F03C
:1040A00004012009642101FB1078A88900F4004074
:1040B00040B1322000EBC800B0FBF1F000F0070087
:1040C000044308E0322000EB08106421B0FBF1F05B
:1040D00000F00F0004432C81BDE8FF870010014071
:1040E0000014014001468888C0F308007047C1F3FE
:1040F00008028280704770B504460D46D4F8E40586
:104100002946426820469047002070BD70B504469D
:104110000D464FF48970005D022802D0032812D1A9
:1041200000E000BF688801280CD100214FF48C709A
:104130000151D4F8E405294682682046904720467C
:1041400000F075F804E02946204600F021F800BF91
:1041500000BF70BD2DE9F04106460C46154600270C
:104160002B46224600213046FDF707FF3846BDE8C2
:10417000F0812DE9F04106460C46154600272B46F6
:10418000224600213046FDF753FF3846BDE8F08156
:1041900070B504460D4680212046FDF725FF00211D
:1041A0002046FDF721FF204601F07BF970BD2DE987
:1041B000F04104460E4615460027C4F89453C4F84F
:1041C0009053032140F2111001552B463246002135
:1041D0002046FDF7D2FE3846BDE8F08170B50446B2
:1041E0000025052140F21110015500231A461946F9
:1041F0002046FDF7C2FE204601F053F9284670BD67
:104200002DE9F04104460E4615460027C4F83C51FE
:10421000C4F83851022140F2111001552B463246A4
:1042200000212046FDF704FF3846BDE8F08170B557
:1042300004460025042140F21110015500231A46BE
:1042400019462046FDF7F4FE204601F02AF92846DB
:1042500070BD70B505460E46002E51D105F58E7421
:1042600040F21110405D02283DD1A168E06988420A
:1042700011D9A168E069401AE061E878012803D10A
:10428000D4E902100844E060A08B82B22846E168BD
:10429000FFF76FFF27E0A168206AB0FBF1F201FB96
:1042A000120078B9A168206A88420BD3D4E90801CA
:1042B000884207D2002211462846FFF75AFF002005
:1042C000606210E0D5F8E405C06848B14FF4897029
:1042D000405D032804D1D5F8E405C1682846884725
:1042E0002846FFF77BFF4FF48B70405D012816D105
:1042F000284600F06BFA00214FF48B7041550EE018
:10430000D5F8E405406950B14FF48970405D032849
:1043100005D1D5F8E405314642692846904700208A
:1043200070BD70B505460E46A6BB05F55D7440F23E
:104330001110405D03283DD1A168E069884217D97A
:10434000A168E069401AE061E878012803D1D4E966
:1043500002100844E060A368E069984201D2E06975
:1043600000E0A06882B22846E168FFF7F3FE21E092
:10437000D5F8E405006948B14FF48970405D032821
:1043800004D1D5F8E4050169284688472846FFF797
:104390004EFF0FE0FFE7D5F8E405806950B14FF418
:1043A0008970405D032805D1D5F8E405314682695E
:1043B00028469047002070BD01460020704700004D
:1043C00070B504460D46E888012804D029462046E9
:1043D000FFF7DEFE1AE04FF48970005D022802D07C
:1043E00003280DD105E0012209492046FFF708FF07
:1043F0000BE0012204F588712046FFF701FF04E07D
:1044000029462046FFF7C4FE00BF00BF70BD000074
:10441000F4030020F8B504460E4670880012082800
:104420006CD2DFE800F06B0416226B6B6166A0783B
:10443000D4F8EC150A68694690470546F08840288C
:1044400004D04FF48970005D012801D1082000904C
:1044500059E0A078D4F8E4158A6A69469047054681
:1044600002216970C4F8F0554DE0B078062834D2C6
:10447000DFE800F0030B131B232BA078D4F8EC1516
:104480004A686946904705462CE0A078D4F8EC15B8
:104490008A6869469047054624E0A078D4F8EC1570
:1044A000CA686946904705461CE0A078D4F8EC1528
:1044B0000A6969469047054614E0A078D4F8EC15DF
:1044C0004A696946904705460CE0A078D4F8EC1597
:1044D0008A6969469047054604E031462046FFF761
:1044E00057FEF8BD00BF0EE031462046FFF750FEF4
:1044F000F7E731462046FFF74BFEF2E7314620460C
:10450000FFF746FEEDE700BFBDF8000088B1F08878
:1045100078B1F088BDF80010884202DDBDF80000D7
:1045200000E0F0880090BDF8002029462046FFF703
:1045300067FE00BFD5E70146002002E0421CD0B272
:10454000491C0A78002AF9D17047000070B504466A
:104550000D464FF48970005D022802D0032813D164
:1045600000E000BF01200C4908604FF48C70005936
:1045700020B10846006840F00200086002220649A7
:104580002046FFF73DFE04E029462046FFF700FEE7
:1045900000BF00BF70BD0000F80300202DE9F0410E
:1045A00004460D4617460026FCB12046FFF7C3FF20
:1045B000022101EB400038803A783046711CCEB2BF
:1045C0002A5403223046711CCEB22A540AE014F851
:1045D000012B3046711CCEB22A5400223046711C89
:1045E000CEB22A5420780028F1D1BDE8F0812DE91F
:1045F000F04104460F4615461E46DDF81880204659
:1046000000F01AFC2046FFF7D7FEC4F8E465C4F8B2
:10461000E885C4F8EC5539462046FDF7FDFFD4F88F
:10462000E81508688047204600F0F0FBBDE8F081FF
:1046300010B50446D4F8E405016A204688470020F6
:1046400010BD10B50446D4F8E405416A20468847F9
:10465000002010BD7CB505460024284601F016FA5E
:10466000002865D0284601F01CFA0190019808B98D
:1046700000207CBD0198C0F3C04018B12846FDF76A
:10468000D3FD04430198C0F3804018B12846FDF7DC
:1046900029FD04430198C0F3400050B10020009070
:1046A000009820F00200801C00900098E9684861A2
:1046B00000BF0198C00F18B12846FDF735FE04432E
:1046C0000198C0F3C02018B12846FDF7CFFE04437F
:1046D0000198C0F3C00018B12846FDF7B1FE0443AD
:1046E0000198C0F3001018B12846FDF751FE0443AD
:1046F0000198C0F3003018B12846FDF70BFF0443C2
:104700000198C0F3403018B12846FDF7B8FC0443C7
:104710000198C0F3005018B12846FDF7CBFF0443C1
:104720000198C0F3405018B12846FDF7D9FF044363
:1047300020469EE790F8CC250A7090F8CD254A7067
:1047400090F8CE3590F8CF2503EB02224A8090F8FE
:10475000D03590F8D12503EB02228A8090F8D2352B
:1047600090F8D32503EB0222CA80CB884FF4A072C5
:104770001350012340F211121354704710B5044630
:104780000023402219462046FDF7C3FB00234022A8
:1047900080212046FDF7BDFB01214FF489700155B2
:1047A000A078D4F8E82551688847002010BD10B5DE
:1047B0000446D4F8E8150869804740F21310015DFB
:1047C000401E015503210155002010BD014603483C
:1047D000026808694260002070470000BC030020A6
:1047E00010B50446D4F8E405C06920B1D4F8E40556
:1047F000C16920468847002010BD70B504460D46AB
:10480000A88818BBE88808BBA87800F07F064FF49A
:104810008970005D032804D129462046FFF7B8FCC3
:1048200018E04FF48A70065531462046FDF7CEFB5E
:104830002046FFF7FCFC26B102214FF48970015598
:1048400008E001214FF48970015503E02946204614
:10485000FFF79EFC70BD70B504460D46D4F8E40524
:104860002946026820469047D4F8E81588688047B2
:10487000002070BD70B504460D46A8783049087018
:1048800008460078012804DD29462046FFF780FC11
:1048900055E04FF48970005D022802D0032848D10A
:1048A00017E02748007880B12548007884F8100187
:1048B00003214FF489700155214801782046FFF704
:1048C000CAFF2046FFF7B3FC02E02046FFF7AFFC2B
:1048D00034E01B48007880B902214FF489700155FB
:1048E0001748007884F81001154801782046FFF732
:1048F00002FC2046FFF79BFC1AE094F810011049D7
:104900000978884211D094F810112046FFF7F3FB84
:104910000B48007884F81001094801782046FFF719
:104920009AFF2046FFF783FC02E02046FFF77FFC5A
:1049300004E029462046FFF72BFC00BF00BF70BDF6
:10494000FC030020F8B504460D46002668880128BF
:104950000DD101214FF48C700151D4F8E4052946A2
:104960008268204690472046FFF761FC39E068885E
:10497000022836D12879A0BB206940680090A88819
:104980000612062E22D2DFE806F02103090F151BBE
:10499000009820F070001030009017E0009820F090
:1049A00070002030009011E0009820F0700030304E
:1049B00000900BE0009820F070004030009005E07F
:1049C000009820F070005030009000BF00BF0548F4
:1049D0000099016001214FF48B7001552046FFF7CB
:1049E00026FCF8BDBC0300201CB5044669462046E1
:1049F000FFF7A0FE9DF8000000F01F0020B1012885
:104A000007D002280FD109E06946204600F016F8C9
:104A100011E06946204600F0F9F80CE069462046AE
:104A200000F046F807E09DF8000000F08001204605
:104A3000FDF7DAFA00BF00BF00201CBD70B50546C7
:104A40000C46002660780A2829D2DFE800F01923F6
:104A5000281E280A0528140F21462846FFF7DAFCED
:104A600022E021462846FFF7C8FE1DE021462846E1
:104A7000FFF700FF18E021462846FFF7A1FC13E0EE
:104A800021462846FFF762FD0EE021462846FFF743
:104A900059FF09E021462846FFF738FB04E021468C
:104AA0002846FFF775FB00BF00BF304670BD000011
:104AB0002DE9F04105460E4600273479707800282C
:104AC00057D001282BD0032875D14FF48970405D51
:104AD000022802D003281BD107E02CB1802C03D080
:104AE00021462846FDF780FA17E0708830B92CB1CE
:104AF000802C03D021462846FDF776FAD5F8E40548
:104B000031468268284690472846FFF790FB04E02C
:104B100031462846FFF73CFB00BF00BF70E04FF472
:104B20008970405D022802D003281BD107E02CB118
:104B3000802C03D021462846FDF756FA17E07088EE
:104B400078B95CB1802C09D021462846FDF7BDF923
:104B5000D5F8E40531468268284690472846FFF795
:104B600066FB04E031462846FFF712FB00BF00BF9A
:104B700046E04FF48970405D022802D0032837D107
:104B800007E02CB1802C03D021462846FDF72CFAF3
:104B900033E004F08000802812D104F07F0000EBA5
:104BA000800105F58E7000EBC100807820B10120F6
:104BB0001549086016E022E000201349086011E062
:104BC00004F0800070B904EB840105F55D7000EB22
:104BD000C100807818B101200B49086002E0002074
:104BE00009490860022208492846FFF709FB04E04A
:104BF00031462846FFF7CCFA00BF00BF00E000BFF7
:104C000000BF3846BDE8F081F003002070B50446CF
:104C10000D4600264FF48970005D032814D12879D1
:104C200001280CDCD4F8E405294682682046904728
:104C3000E88840B93EB92046FFF7F9FA03E0294673
:104C40002046FFF7A5FA04E029462046FFF7A0FA20
:104C500000BF00BF304670BD10B504464FF48970E8
:104C6000015D401C01550421401E0155D4F8E81592
:104C7000C8688047002010BD70B505460C462DB9A8
:104C80002246064906A0FFF789FC04E022460349B4
:104C900003A0FFF783FC014870BD0000F83000203E
:104CA00056435020436F6E66696700007047704737
:104CB000024612200880014870470000E8020020E8
:104CC000704710B1012802D100E001E000E000BF10
:104CD00000BF7047704770477047000070B50546C9
:104CE0000C462DB92246064906A0FFF757FC04E002
:104CF0002246034903A0FFF751FC014870BD0000A4
:104D0000F830002056435020496E74657266616326
:104D1000650000000246042008800148704700003A
:104D20000403002070B505460C462246024903A044
:104D3000FFF734FC004870BDF830002053544D6933
:104D40000000000070B505460C462DB92246064904
:104D500006A0FFF723FC04E0224603490CA0FFF75E
:104D60001DFC014870BD0000F830002053544D3345
:104D700032205669727475616C20436F6D506F728A
:104D80007420696E204853206D6F64650000000038
:104D900053544D3332205669727475616C20436FE1
:104DA0006D506F727420696E204653204D6F64659C
:104DB0000000000070B505460C462DB92246064994
:104DC00006A0FFF7EBFB04E02246034907A0FFF72C
:104DD000E5FB014870BD0000F83000203030303075
:104DE000303030303035304200000000303030306C
:104DF0003030303030353043000000000246432070
:104E000008800148704700007403002038B504464C
:104E10004FF4C060FDF7E2FF43208DF80000012051
:104E20008DF8010003208DF8020001208DF80300A9
:104E30006846FDF797FF38BD1CB5044601210846BA
:104E4000FEF742F94FF4C050009003208DF80500A2
:104E500002208DF8040000208DF806008DF8070070
:104E600069462148FDF79AFE0A2208211E48FDF7EF
:104E7000DDFE0A220B211C48FDF7D8FE0A220C2178
:104E80001948FDF7D3FE4FF40070009003208DF811
:104E9000050000208DF8040001208DF80600002098
:104EA0008DF8070069461048FDF778FE4FF48060E2
:104EB000009001208DF806008DF8070003208DF882
:104EC000050069460848FDF769FE0A2211460648B2
:104ED000FDF7ACFE01218803FEF726F901218020B1
:104EE000FEF702F91CBD00000000024010B50446A8
:104EF0004FF47A7104FB01F000F001F810BD10B519
:104F00000022C0EB0013DB000724B3FBF4F100BF69
:104F1000531C1A468B4200D910BDF9E73EB5044632
:104F200000250020029001900090207A01283DD1B8
:104F3000E068806B0190019820F480300190607AE5
:104F400028B1019820F4801000F58010019001989C
:104F5000E168886300200290E068C06802900298CF
:104F600020F040000290029820F480000290029805
:104F700020F400300290029820F400200290029861
:104F8000E168C860204600F063F9E078012843D169
:104F9000009820F01E000A300090009820F02000B9
:104FA000203000900098E168886035E0E068C068D3
:104FB0000290029820F04000403002900298E16890
:104FC000C860204600F044F900200190019820F4C8
:104FD000803000F580300190019820F4802000F5A9
:104FE00080200190019820F4002000F5002001901D
:104FF000019820F4001000F500100190607A28B1AB
:10500000019820F4801000F5801001900198E1686B
:1050100088631420FFF76AFFE07801280FD1E06869
:1050200080680090009820F01E000A3000900098E0
:1050300020F02000203000900098E1688860284629
:105040003EBD70B588B0044600260020079006904B
:105050000590049003900021D4F80C0101602069B0
:1050600000680690069820F4C050069006992069C2
:105070000160E07A01283FD10321204600F0FAFCCC
:105080008020E1684862059880B200F50010059024
:1050900005986FF30F00803005900598E1688862ED
:1050A000059800EB1041049861F30F0004900498F8
:1050B00080B200F5000004900498E168C1F8040192
:1050C000049800EB104161F30F000490049880B243
:1050D00000F5001004900499E068C0F808110498E5
:1050E00000EB104161F30F000490049880B204902B
:1050F0000499E068C0F80C111021204600F070FC03
:10510000204600F047FC00212069016120694161CF
:10511000491E2069816100212069C16100252CE0C0
:1051200004F1180050F82500006807900798C00F98
:1051300070B100200790079820F0804000F1804077
:105140000790079820F0006000F10060079001E0F0
:105150000020079004F1180050F82500079901601D
:10516000002104F1180050F825000161FF2104F12D
:10517000180050F8250081606D1C6078A842CFD8D7
:1051800000252CE004F1540050F82500006801903F
:105190000198C00F70B100200190019820F080406C
:1051A00000F180400190019820F0006000F1006063
:1051B000019001E00020019004F1540050F8250016
:1051C00001990160002104F1540050F825000161AB
:1051D000FF2104F1540050F8250081606D1C6078B7
:1051E000A842CFD800200390039820F4807000F5E7
:1051F00080700390206900690399884308432169FE
:105200000861E07801281DD100200290029820F06A
:105210000100401C0290029820F00200801C0290C5
:105220004021029861F38A000290029820F48030B5
:1052300000F580300290029861F359400290029983
:1052400020690163204600F047FB304608B070BD7E
:10525000F8B50446002600250020009000BF03207A
:10526000FFF74DFEE06800690090681C0546134991
:10527000884201D90020F8BD0098C00F0028EED068
:105280000025009820F00100401C00900098E16883
:10529000086100BFE06800690090681C0546074986
:1052A000884200D904E0009800F001000028F1D104
:1052B00000BF0320FFF723FE3046DCE7400D03006C
:1052C00008B50146002000220092009A22F0010257
:1052D000521C0092CA689268009B9A43CB689A60FD
:1052E00008BD0EB501460020002200920A699268AE
:1052F00002928A6912680192029AC2F3410232B1A3
:10530000012A05D0022A09D0032A0DD101E000BFED
:1053100000BF019A6FF30A02019205E0019A6FF350
:105320000A02D21C019200BF00BF019B8A69136070
:10533000009A22F4807202F5807200920A69526823
:10534000009B9A431A430B695A600EBDFEB5024694
:10535000002000240025029500954D78012D52D1A2
:1053600093691D6802951D6900954D6955B9009DA9
:1053700025F07F050095009D25F4C01505F5002555
:10538000009516E08E684D69B54207D98D684D616C
:105390000E7A009D66F30605009504E00E7D009DE3
:1053A00066F306050095009D25F4C01505F500255A
:1053B0000095009D1D61D578012D06D10F7802F171
:1053C000180555F827500E696E61029D25F080651D
:1053D00005F180650295029D25F0004505F1004527
:1053E0000295029D1D60D578002D59D14D69002D83
:1053F00056D00E780125B5402C4315696D6B2543B9
:10540000166975634CE00E7802F1540555F8265084
:105410002D6802950E7802F1540555F826502D6935
:1054200000954D695DB90E7A009D66F306050095FD
:10543000009D25F4C01505F5002500950CE08D684C
:105440004D610E7A009D66F306050095009D25F4DA
:10545000C01505F5002500950F7802F1540555F8A3
:105460002750009E2E61D578012D06D10F7802F1CC
:10547000540555F827500E696E61029D25F0806530
:1054800005F180650295029D25F0004505F1004576
:1054900002950F7802F1540555F82750029E2E60B0
:1054A000FEBD0EB500210191019921F04041A1F10D
:1054B00080410191019921F4C01101F50021019170
:1054C000019921F07F0118310191019A416D0A6122
:1054D000C178012915D10021009100F2CC51426D13
:1054E0005161416D09680091009921F0004101F17D
:1054F000004100914FF080210091009A416D0A60B7
:1055000000BF0EBD3CB5024600200024019400946B
:105510004C78012C0CD10D7802F1180454F8253088
:105520000D780124AC40009D64F30F0500950BE05D
:105530000D7802F1540454F825300D780124AC4064
:10554000009D64F31F4500951C680194019CC4F301
:10555000C034E4B90D89019C65F30A040194CD7847
:10556000019C65F3934401948D79019C65F39954F2
:105570000194019C24F0805404F180540194019C16
:1055800024F4004404F500440194019C1C60146957
:10559000E469009D2C431569EC613CBD38B50346B8
:1055A0000020002400944C78012C05D10D7803F1E3
:1055B000180454F8252004E00D7803F1540454F83D
:1055C000252014680094009C24F400140094CC78E6
:1055D000032C02D0CC78022C05D1009C24F08054FE
:1055E00004F180540094009C146038BD3CB5024620
:1055F00000200024019400944C78012C0CD10D78EB
:1056000002F1180454F825300D780124AC40009DB7
:1056100064F30F0500950BE00D7802F1540454F883
:1056200025300D780124AC40009D64F31F450095A2
:10563000019C24F400440194019C1C601469E469F9
:10564000009DAC431569EC613CBD38B503460A4684
:105650000020002400945478012C18D1157803F10F
:10566000180454F825100C680094009CE40F2CB129
:10567000009C24F0804404F180440094009C24F4B5
:10568000001404F500140094009C0C600EE01578E2
:1056900003F1540454F825100C680094009C24F481
:1056A000001404F500140094009C0C6038BDFEB595
:1056B00005460C46002600270020029001906078E5
:1056C00001287ED1217805F1180050F821000068EA
:1056D0000290217805F1180050F82100006901902E
:1056E000606948B901986FF3120001900121019897
:1056F00061F3DC40019017E06169019861F31200E9
:1057000001906069401EA1680844B0FBF1F1019866
:1057100061F3DC400190E078012805D1019820F088
:10572000C04000F100500190227805F1180050F8B7
:10573000220001990161E878012807D1227805F15A
:10574000180050F82200216941610DE0E07801283D
:105750000AD0606940B12178012000FA01F7286978
:10576000406B384329694863E078012813D12869E0
:10577000806800900098C0F3002030B9029820F0B3
:10578000005000F10050029005E0029820F0805097
:1057900000F180500290029820F0806000F180605B
:1057A0000290029820F0004000F100400290227820
:1057B00005F1180050F8220002990160E0780128F4
:1057C00000E008E06CD1A08A83B222782846E16824
:1057D00000F048FA64E0217805F1540050F8210007
:1057E00000680290217805F1540050F8210000690A
:1057F0000190606950B9A168019861F312000190AD
:105800000121019861F3DC40019013E0A068401E83
:1058100061690844A168B0FBF1F1019861F3DC40D3
:1058200001900198C0F3C940A1684843019960F311
:1058300012010191227805F1540050F822000199DB
:105840000161E878012806D1227805F1540050F86A
:10585000220021694161E07801280ED1607930B1E0
:10586000029820F0005000F10050029005E00298EC
:1058700020F0805000F180500290029820F080606B
:1058800000F180600290029820F0004000F100409A
:105890000290227805F1540050F82200029901602C
:1058A0003046FEBD08B500210091491EC268516016
:1058B0006FF08041C2685161009921F0004101F10F
:1058C00000410091009921F4006101F5006100910F
:1058D0000099C268916108BD38B5044600250020D2
:1058E0000090E16888616FF08040E168486120467F
:1058F000FFF7D8FFE07820B9009820F010001030B2
:105900000090009820F4006000F50060009000987E
:1059100020F4805000F580500090009820F4005052
:1059200000F500500090009820F4802000F58020C1
:105930000090009820F4002000F5002000900098CE
:1059400020F0080008300090009820F4801000F546
:1059500080100090009820F4001000F500100090D6
:10596000E0688069009988430843E16888612846B7
:1059700038BD08B50146002000220092009A22F0AE
:105980000102521C0092CA689268009B1A43CB68BD
:105990009A6008BDF8B50446002500260020009056
:1059A000009820F01000103000900098E168086125
:1059B00000BFE06800690090701C064607498842F5
:1059C00000D904E00098C0F300100028F1D100BF16
:1059D0000320FFF794FA2846F8BD0000400D0300AD
:1059E000F8B504460D4600260027002000900098D8
:1059F00020F0200020300090009865F38A1000907D
:105A00000098E168086100BFE06800690090781CB8
:105A100007460749884200D904E00098C0F34010C7
:105A20000028F1D100BF0320FFF769FA3046F8BD26
:105A3000400D030008B5014600200A6992680092F3
:105A4000009AC2F3410232B1012A06D0022A07D0DD
:105A5000032A07D102E0032004E000BF022001E096
:105A6000012000BF00BF08BD0146C868406900F0C2
:105A70000100704708B5026912680092009A61F34C
:105A800001020092009B0269136008BD00B5024646
:105A90001046FFF7E9FF012801D0012000BD0020DA
:105AA000FCE701460020CA685069CA689269104044
:105AB00070470146086982690869C069024090B26E
:105AC00070470146086982690869C0690240100C84
:105AD0007047024602F1540353F821309868136965
