:020000040800F2
:10000000785D0020A1020008B1350008A93500087C
:10001000AD350008C11E0008716E00080000000028
:10002000000000000000000000000000513E000839
:10003000952F000800000000853B0008D94100080A
:10004000BB020008BB020008BB020008BB0200089C
:10005000BB020008BB020008BB020008BB0200088C
:10006000BB020008BB020008BB020008BB0200087C
:10007000BB020008BB020008092C00083D2C000848
:10008000BB020008712C0008BB020008BB0200087C
:10009000BB020008BB020008BB020008BB0200084C
:1000A000BB02000879440008A9430008BB0200080D
:1000B000BB020008BB020008BB020008BB0200082C
:1000C000BB020008BB020008BB020008BB0200081C
:1000D000BB020008494C00088D4D0008D54F0008B0
:1000E000BB020008BB02000851360008BB02000832
:1000F000BB020008BB020008BB020008A52C0008D8
:10010000BB020008BB020008BB020008BB020008DB
:10011000A54B0008F94B000849450008BB02000840
:10012000BB020008BB020008BB020008BB020008BB
:10013000BB020008BB020008BB020008BB020008AB
:10014000B51F0008BB020008BB02000841360008CA
:10015000BB020008BB020008BB020008BB0200088B
:10016000BB020008BB020008BB020008BB0200087B
:10017000BB020008BB020008BB020008BB0200086B
:10018000BB020008BB02000800F002F800F078F89B
:100190000AA090E8000C82448344AAF10107DA45E2
:1001A00001D100F06DF8AFF2090EBAE80F0013F0BC
:1001B000010F18BFFB1A43F00103184770400100FC
:1001C000904001000A444FF0000C10F8013B13F07E
:1001D000070408BF10F8014B1D1108BF10F8015BA0
:1001E000641E05D010F8016B641E01F8016BF9D193
:1001F00013F0080F1EBF10F8014BAD1C0C1B09D1EA
:100200006D1E58BF01F801CBFAD505E014F8016B5B
:1002100001F8016B6D1EF9D59142D6D370470000ED
:100220000023002400250026103A28BF78C1FBD8FF
:10023000520728BF30C148BF0B607047662912F0D3
:10024000BE87642900F00C81732900F01487002018
:1002500070471FB512F0A9FF9DE8030000F06EFB88
:1002600000F04AFF04000020002111F0B3FBE06021
:1002700000F032FB1FBD10B5002000F00BFF10BDD9
:1002800001F0BFF81146FFF7E4FF10F0C5FE01F0E2
:10029000E1F803B4FFF7EFFF03BC00F023FF000019
:1002A0000948804709480047FEE7FEE7FEE7FEE70A
:1002B000FEE7FEE7FEE7FEE7FEE7FEE70448054946
:1002C000054A064B704700001D42000889010008DE
:1002D00078570020785D0020785900207859002058
:1002E00070B50D460646041F00F008FBD0F800C0AC
:1002F000C5B1E6B105F10B0020F00703AB423CBFEE
:10030000002070BD2068984238BFDCF8042013D369
:10031000C11A08292FD3E01840F8041B236000F00D
:100320006BFB28E0304600F067FB002070BD2846DC
:10033000BDE8704000F031BB002A18BFA2423CBFAC
:1003400094465268F8D30119914216D111680844B5
:10035000984212D3C11A08293CBF2060506808D3C4
:100360005168E0184160216812681144C91A01609F
:100370002360CCF80400201D70BD181F00F00DFB99
:10038000050007D021680A1F211D00F008FA201D72
:1003900000F032FB284670BD10B54C1084EA5304BF
:1003A00004D54042C1F1000138BF491E1B4204D5AB
:1003B0005242C3F1000338BF5B1E00F044FB14F04F
:1003C000804F04D04042C1F1000138BF491E14F0F3
:1003D000004F04D05242C3F1000338BF5B1E10BD72
:1003E0000FB41CB5084B06AA7B44694600900598DB
:1003F00000F017FE04460020694600F025FE204666
:100400001CBC5DF814FB00005D0C000070B50C46D0
:100410000546012A05D02878800600D5EA69002320
:1004200002E0012305E05B1C934202D2E05C00285D
:10043000F9D1A869E618C01AA861286A1844286288
:100440002846AFF3008004E0D5E9012114F8010B40
:100450009047B442F8D32846AFF3008070BD000047
:100460002DE9F0410646002410687529314616A58D
:1004700010D0AFF30080002802DA404213A507E055
:1004800031688A0701D512A502E0490704D511A5F4
:10049000012401E0AFF3008000210A2206F12407C5
:1004A00009E0B0FBF2FCB0FBF2F302FB1C003030C1
:1004B00078541846491C0028F3D123462A46304672
:1004C000BDE8F04100F041BB000000002D0000003D
:1004D0002B000000200000002DE9F05F8946044653
:1004E0004FF0000ADFF874B1FB44C0F820A02046AA
:1004F000E1688847002874D0252806D0D4E9012176
:100500009047206A401C2062F1E700265F462046A3
:10051000E16888472028054607DB312D05D2781988
:1005200010F8200C08B10643F1E7B00701D526F01A
:100530000406C4F81CA00027C4F818A02A2D09D06E
:10054000284610F00BFD38B304EB8708303DC8F89F
:10055000185019E059F8041B204604EB87029161FA
:10056000E1688847012F054618D1E069002820DAA4
:1005700026F020061DE0D8F8180000EB800005EBFF
:1005800040003038C8F818002046E1688847054622
:1005900010F0E4FC0028EED1012F0AD02E2D08D156
:1005A0002046E16888477F1C0546022F46F020065A
:1005B000C4DBA069002803DA404246F00106A061CE
:1005C000F00701D026F010066C2D0BD0682D09D055
:1005D0004C2D39D06A2D35D0742D35D07A2D33D0AD
:1005E00016E038E0E1682F4620468847B8420546C5
:1005F00009D16C2F26D04FF48060E1680643204675
:100600008847054604E06C2F1AD04FF480700643EB
:100610000DB3A5F14100192802D8203546F4006633
:100620004A462946204626604E46FFF707FE80B11F
:1006300001280BD0F61D26F0070000F1080956E747
:100640004020E4E78020D8E70020D6E706F104093F
:100650004DE7284652E7206ABDE8F09F4A36010080
:100660002DE9F041074615460E46102000F095F999
:1006700004000AD06760C4E9026500F043F901682C
:10068000216004600020BDE8F0810120FBE740EA22
:100690000103024630B59B0710D14FF0013400E052
:1006A00008C208C91D1B9D4315EAC41FF8D013F0EA
:1006B000FF0102F8011B0DD01B0AF8E711F8013BFE
:1006C000002B02F8013B05D011F8013B002B02F88A
:1006D000013BF3D130BD10B5431C02E010F8011B03
:1006E00071B18107FAD14FF0013202C88C1A8C43E4
:1006F00014EAC211F9D0C01A0A0603D0C01E10BDF8
:10070000C01A10BD0A0401D0801E10BD0902FCD021
:10071000401E10BD032A40F2308010F0030C00F0A0
:10072000158011F8013BBCF1020F624498BF11F82B
:1007300001CB00F8013B38BF11F8013BA2F10402E4
:1007400098BF00F801CB38BF00F8013B11F003035C
:1007500000F02580083AC0F0088051F8043B083AC0
:1007600051F804CBA0E80810F5E7121D5CBF51F862
:10077000043B40F8043BAFF30080D20724BF11F8DC
:10078000013B11F801CB48BF11F8012B24BF00F841
:10079000013B00F801CB48BF00F8012B704710B5B2
:1007A000203AC0F00B80B1E81850203AA0E8185069
:1007B000B1E81850A0E81850BFF4F5AF5FEA027C2A
:1007C00024BFB1E81850A0E8185044BF18C918C099
:1007D000BDE810405FEA827C24BF51F8043B40F83A
:1007E000043B08BF7047D20728BF31F8023B48BF1F
:1007F00011F8012B28BF20F8023B48BF00F8012B5D
:1008000070474FF0000200B51346944696462039D3
:1008100022BFA0E80C50A0E80C50B1F12001BFF4B9
:10082000F7AF090728BFA0E80C5048BF0CC05DF81F
:1008300004EB890028BF40F8042B08BF704748BF6D
:1008400020F8022B11F0804F18BF00F8012B7047E1
:100850004FF0013C50F8042B51F8043B9A4221D14F
:10086000A2EB0C03934313EACC1317D150F8042BDB
:1008700051F8043B9A4215D1A2EB0C03934313EABF
:10088000CC130BD150F8042B51F8043B9A4209D1F8
:10089000A2EB0C03934313EACC13DBD04FF0000020
:1008A000704700BFD01A01BAB1FA81F101F0180106
:1008B00022FA01F0CB40C1F12001DBB2C0B2C01A74
:1008C0002CFA01F3D11A914311EAC311E6D1704712
:1008D000704770477047000070B5064C7C44064D69
:1008E0007D4403E0206820448047241DAC42F9D1B8
:1008F00070BD00008839010094390100004870473C
:10090000205700200048704750570020704770471C
:100910007047704738B504460A4600206946AFF371
:100920000080002808BF38BD02460099204600F02C
:10093000F6FB012038BD012000F00ABDF8B5AFF389
:100940000080054600200C46102000BF0646A8196E
:10095000A0420DD9324669460020AFF3008007005F
:1009600008BF00F0F5FC0098A04218BF0546C41966
:10097000FFF7C4FF05600746F01D20F00700461989
:10098000284600F0C5FBB44208BFF8BDA21B3146A3
:100990003868BDE8F84000F0C2BB70B50646FFF706
:1009A000ADFF056806F10B0020F00704B4429CBFC0
:1009B000002070BD2B466A68BAB11068A04210D3FF
:1009C00004F1080188423CBF5068586007D3516861
:1009D000101941601168091B016058601460101DF6
:1009E00070BD13465268002AE7D121462846FFF71A
:1009F00091FF0028DED170BD70B50446051FFFF7DA
:100A00007DFF0068002C14BF446870BD002C18BF27
:100A1000AC423CBF20466468F8D301680A18AA4279
:100A200018BF456003D12A68054611440160286853
:100A30004119A1421CBF6C6070BD6168696021688A
:100A40000844286070BD53EA020C00F069802DE96B
:100A5000F04B4FF00006002B1FBFB3FA83F503FAEB
:100A600005F424FA05F65E4012BF1643B2FA82F589
:100A700002FA05F4C5F120051EBF22FA05FC44EA7E
:100A80000C04203556EA044C4FEA144418BF641C89
:100A90004FF000084FF00009904271EB030C39D37E
:100AA000002919BFB1FA81F701FA07F6B0FA80F709
:100AB00000FA07F6C7F120071EBF20FA07FC46EA36
:100AC0000C062037B6FBF4FCA7EB0507103F07F038
:100AD0001F0BCBF120060CFA0BFB2CFA06F644BFD9
:100AE000B3460026202FA4BF5E464FF0000B5BEA02
:100AF000060C08BF4FF0010B19EB0B09ABFB027C96
:100B000048EB0608C01B06FB02CC0BFB03CC71EBC9
:100B10000C01C1E70B46024641464846BDE8F08B52
:100B200013B54FF000004FF00001AFF30080BDE8B7
:100B30001C40704710B500F0E7FA006810BD10B512
:100B4000044600F0E1FA046010BD2DE9F0470D46BF
:100B500099469246044600F124080168880604D5A7
:100B6000E06921F01001216000E00120A84201DDD0
:100B7000471B00E00027A1697A1902EB0900081A57
:100B8000A0612078C00602D42046AFF30080002682
:100B900008E0D4E901211AF806009047206A401CB9
:100BA000761C20624E45F4DB2078C0060AD520462C
:100BB000AFF3008006E0D4E9012130209047206A9D
:100BC000401C2062381EA7F10107F4DC07E0D4E9DD
:100BD000012118F805009047206A401C2062281E59
:100BE000A5F10105F3DC2046AFF300802078000674
:100BF00002D50220BDE8F0870120FBE770472DE910
:100C0000FF4F0C461E464FF0FF378BB0D2E9000174
:100C1000DDF860800A908A46C1F30A5505B93D4661
:100C2000002108464FF00000BAF1000F00F4400028
:100C300005DA00EB80004FF4400101EA50004FEA72
:100C40009059B9F1010F00DDB9460A9850EA4A00FF
:100C50000ED044F61050A5F2FF3545432F14B8F1DD
:100C6000000F1ED07542291E1EDDC9F100021CE0D6
:100C7000B8F1010F4FF0000001D0302103E0F24342
:100C800005E02154401CB042FBDB3046002200212D
:100C900021540B99C1F80880C1E900200FB0BDE8CC
:100CA000F08FBD1B6D1CDEE74A4600DA694206A8DC
:100CB00000F0D4FA06AB93E8070003AB83E8070023
:100CC00050460A9900F04DFC8DE80700A0F5005051
:100CD0001F3800900398002D09DD42F21F014A469B
:100CE000084403A90390684600F0ACFE08E0A0F5B4
:100CF00000504A461F3803A90390684600F0B6FE2C
:100D00008DE807000004000C03D04FF0FF304108CD
:100D100000E01046B8F1000F03D000220092154603
:100D20001EE0751E05D400F014FA303262556D1EB7
:100D3000F9D5B3460122084302D000227F1C04E00B
:100D40002078302801D100227F1E002A099786D002
:100D50001DE0112D07DA00F0FCF9303262556D1CF0
:100D600050EA0102F5D1084302D00098C8B10EE064
:100D70000021681E05E0235C625C63542254401E1F
:100D8000491C8142F7DBAB46A81B401E099000209E
:100D900004F80B000B98099AC0F80880C0E9002BF2
:100DA0007CE711264FF0000859E72DE9F04F8846FF
:100DB0000446D21D22F0070191B0D1E90001CDE92E
:100DC0000A010FF0BBFC02460B98C00F01D02D208A
:100DD00007E02068810701D52B2002E0202101EAED
:100DE000C000032A099001D0072A05DB03464146CB
:100DF000204600F0F3F90BE12078800601D5E06988
:100E000000E00620B8F1650F814606D0B8F1660F04
:100E100018D0B8F1670F70D131E00020B9F1110F8F
:100E2000009001DB112301E009F101030AAA01A9E5
:100E30000CA8FFF7E4FEDDE90C70002609F10105BE
:100E4000834647E001204B4600904FF000470AAA36
:100E500001A90CA8FFF7D3FEDDE90DB00C995D46A2
:100E6000002610B909F101000D18B9EB050003D4F3
:100E7000C0F1FF3609F10105A5EB09002BE0B9F13E
:100E8000010F01DA4FF001090020B9F1110F0090B4
:100E9000484601DD112300E003460AAA01A90CA877
:100EA000FFF7ADFEDDE90C704D4600268346207845
:100EB00000070AD4AB4500DA5D4601A8012D04DD28
:100EC000411911F8011C302907D04F4502DA17F1FA
:100ED000040F04DA012082460FE06D1EEEE7002FBA
:100EE00002DCED1B3E4403E0781CA84200DD7D1CC3
:100EF000B81B00F1010A4FF000472078000703D427
:100F0000AA4501DB4FF0FF3A0021B7F1004F0DF188
:100F100043088DF8431024D002202B23002F01DA40
:100F20007F422D230A21021EA0F1010000DC5FB1E7
:100F300097FBF1FC97FBF1F201FB1C7C17460CF1CF
:100F4000300C08F801CDEEE7A8F10100037021880C
:100F5000090501D5452100E06521A0F1010800F84F
:100F6000011C09980FA9A1EB0807FF1D00B1012082
:100F7000411901EBEA70A1693844081A401EA061CA
:100F80002078C00602D42046AFF30080099828B12B
:100F9000D4E901219047206A401C20622078C006D5
:100FA00022D52046AFF300801EE0002E04DBB345BF
:100FB00002DD01A8805D00E03020D4E901219047E6
:100FC000206A401C2062761CAAF101005FEA000A38
:100FD0000AD100F091F8C0680168405CD4E90121B1
:100FE0009047206A401C2062281EA5F10105DCDC28
:100FF00007E0D4E9012118F8010B9047206A401C52
:101000002062381EA7F10107F3DC2046AFF3008011
:10101000032011B043E6000001694A1C0261087810
:10102000704700B58FB0CDE9013100210591054928
:101030007944CDE9031011466846FFF74DFA0FB029
:1010400000BD0000E5FFFFFF0A6802F8010B0A601F
:10105000704710B5436913B1AFF3008001E0FFF7AB
:10106000D5F9012010BD127800F124010A70002288
:101070004A700122EDE711684FF0FF32E9E710B541
:10108000002000F05EF9FFF7F6F8BDE810400120FF
:1010900000F028B82DE9F0410646FFF733FC804602
:1010A000454613E016B1E068B0420ED120682860D2
:1010B000D4E90101D8F8007088472046FFF79CFC6E
:1010C000D8F80000B842EBD100E025462C68002C8F
:1010D000E8D1BDE8F08110B500F042F9BDE810405C
:1010E00000F02AB901491820ABBEFEE72600020035
:1010F00000487047185700200048704738570020B4
:10110000004870474C57002000487047185700208F
:1011100000210160C0E901107047102070470346AC
:1011200040688C46002818BF88423CBF0346406890
:10113000F8D318681844884207D00CF1030020F057
:101140000700001D411A521A0146081D0A60FFF7E8
:1011500053BC30B5B0F10A024FEA900E71F10003B2
:101160004EEA817EB0EB0E0061EB91014FEA101E5A
:101170004EEA017E10EB0E0041EB11114FEA102EEA
:101180004EEA016E10EB0E0041EB11214FEA104EBA
:101190004EEA014E10EB0E0041EB1141401841F1B7
:1011A00000014FEAD00040EA41704FEAD10110EB54
:1011B00080054FEA810444EA907444EB01046D1900
:1011C00044EB0404521BA3414FF0000348BF0A3212
:1011D00000D530BD401C41F1000130BD2DE9F0418A
:1011E0001F46044603260168072A01F4006004DB59
:1011F00008B116A505E016A503E008B115A500E0A5
:1012000015A521F010002060A069C01EA0610FB1DB
:10121000401EA0612046AFF300804FB1D4E9012108
:1012200038469047206A401C2062C01C206206E0BD
:10123000206AFAE7D4E9012115F8010B9047761EE0
:10124000F8D22046AFF30080BDE8F0814E414E0059
:101250006E616E00494E4600696E66002DE9F047EA
:10126000814616468AB0334878440DC88DE80D0093
:1012700030487844801C03AC0DC884E80D0041F66A
:101280009B300844372190FBF1F290FBF1F5A5F17A
:10129000800501FB12041B3C02D56442012000E0E2
:1012A0000020DFF890A080460027FA44AAF1BE0A89
:1012B0000DE0E00709D03246684607EB47010AEB2C
:1012C000810100F0D3FB8DE8070064107F1C002C27
:1012D000EFD1184F7F44AC3F18E0E80714D007EB7C
:1012E00004100DF1180A90E80E008AE80E00C0689C
:1012F000F04201D198190890324606A903A800F0DF
:10130000B5FB03AB83E807006D10641C002DE4D12E
:1013100032466946B8F1000F03A802D000F092FBF4
:1013200001E000F0A3FBC9E90001C9F808200AB0F8
:10133000BDE8F08778290100002801D0FFF7D2BE70
:10134000704710B500F0A8F8BDE81040FFF7F4BFF3
:1013500010B500F0B9F8BDE81040FFF7EDBF000090
:1013600010B5002102A000F07EF8012010BD0000A1
:101370005349475056464E3A20507572652076695B
:10138000727475616C20666E2063616C6C656400BC
:10139000AFF3008010B500F00EF8016919B100221A
:1013A0000261884701E080688047FFF768FE00001F
:1013B00010B5FFF764FE70B500F048F80468054604
:1013C000A4B92020FFF7E9FA040011D00949002050
:1013D0002C60C4E900010849A160207320616061AC
:1013E0000649A06109B100F097F8E061204670BDA0
:1013F000FFF745FE00000000B113000800000000E8
:1014000070477546FFF774FEAE46050069465346C1
:1014100020F00700854618B020B5FEF74FFFBDE865
:1014200020404FF000064FF000074FF000084FF04B
:10143000000B21F00701AC46ACE8C009ACE8C009DC
:10144000ACE8C009ACE8C0098D4670470048704759
:101450005457002010B50446AFF300802046BDE885
:101460001040FEF716BF70B505460C460A2000E096
:101470006D1C00F06FF835B128780028F8D102E033
:10148000641C00F067F814B120780028F8D1BDE89A
:1014900070400A2000F05EB810B5002102A0FFF7EE
:1014A000E2FF012010BD0000534947414252543A27
:1014B0002041626E6F726D616C207465726D696E31
:1014C0006174696F6E00000010B5012805D000211D
:1014D00003A0FFF7C8FF012010BD09A1F8E7000035
:1014E00053494752544D454D3A204F7574206F660D
:1014F0002068656170206D656D6F72790000000075
:101500003A2048656170206D656D6F727920636F58
:10151000727275707465640010B58820FFF73DFA2B
:10152000002801D00021017010BD802902D808B127
:10153000017809B100207047012100F8081B7047AD
:1015400018B100F10802914201D00020704700213B
:101550000170704708B569468DF800000320ABBEE6
:1015600008BD5FEA400C08BF91F0000F4FEA8C23E2
:101570004FEAC12243EA51514FEA1C5018BF00F50F
:10158000F0404FEA300018BF41F000415FEA6C5C68
:1015900000F02980BCF1FF3F08BF40F08040704759
:1015A000130C06BF12044FF0100C4FF0000C130E7A
:1015B00004BF12020CF1080C130F04BF12010CF14E
:1015C000040C930F04BF92000CF1020CD30F04BF64
:1015D00052000CF1010C11464FF00002A0F11F0067
:1015E000A0EB0C00704711F0004F08BF704731F0BE
:1015F00000413FF4D5AF0B0C06BF09044FF0100CAF
:101600004FF0000C0B0E04BF09020CF1080C0B0F7D
:1016100004BF09010CF1040C8B0F04BF89000CF10D
:10162000020CCB0F04BF49000CF1010CCCF12003DC
:10163000A0EB0C0022FA03F302FA0CF241EA0301D8
:1016400000F10100704720F07F4C80EA030023F096
:101650007F47ACEB070303F57C5300F0004003F138
:10166000FF032DE980494FEA154B09B44FEA1443B3
:1016700025EA0B4E24EA03480FF2042606EB132753
:1016800049083E785FEA320203FB0667C7F50007A8
:1016900007FB06F64FEA54374FEAD64606F1020634
:1016A00007FB066CCCF1005C4FEA1C472CEA074CA8
:1016B00007FB06F40CFB06F504EB15464FEA9616FD
:1016C00034BF00204FF000404FEAD13706FB07FC43
:1016D0004FEA1C4C0CFB0BF7D21B03FB0CF761EB26
:1016E00007010CFB0EF7B0EB074072EB17420CFB47
:1016F00008F734BFA2EB0742B2EB074261EB174198
:101700004FEA0C444FEA910706FB07FC4FEA1C4CDA
:101710000CFB0BF7B0EBC74072EB573203FB0CF737
:1017200034BFA2EBC742B2EBC74261EB57310CFBAF
:101730000EF7B0EBC70072EB57720CFB08F734BF23
:10174000A2EBC702B2EBC70261EB5771039F4FEAEE
:10175000816141EA921104EBCC044FEAD1374FEAA0
:10176000826206FB07FC42EA90124FEA80604FEA71
:101770001C4C0CFB0BF7D21B03FB0CF761EB0701B6
:101780000CFB0EF7B0EB074072EB17420CFB08F7AF
:1017900034BFA2EB0742B2EB074261EB17414FEABD
:1017A0008C554FEA910704EB9C2406FB07FC4FEA9B
:1017B0001C4C0CFB0BF7B0EBC74072EB573203FB32
:1017C0000CF734BFA2EBC742B2EBC74261EB573113
:1017D0000CFB0EF7B0EBC70072EB57720CFB08F76F
:1017E00034BFA2EBC702B2EBC70261EB577115EB36
:1017F0004C254FEA816141EA92114FEA82624FEA39
:10180000D13742EA901206FB07FC44F100044FEA8C
:1018100080604FEA1C4C0CFB0BF7D21B03FB0CF750
:1018200061EB07010CFB0EF7B0EB074072EB1742C0
:101830000CFB08F734BFA2EB0742B2EB074261EBA7
:10184000174115EB1C154FEA813141EA92414FEAED
:10185000823242EA90424FEA80304FEA0C7644F1FD
:10186000000448EA03434EEA0B484FF0000EB2EB87
:10187000080C71EB030724BF624639464EEB0E0E8F
:101880004FF0000B0018524149414BEB0B0BB2EBF0
:10189000080C71EB03077BF1000B24BF624639464D
:1018A0004EEB0E0E4FF0000B0018524149414BEB2E
:1018B0000B0BB2EB080C71EB03077BF1000B24BFA1
:1018C000624639464EEB0E0E51EA020718BF46F04B
:1018D000010616EB0E7655F1000254F1000103D516
:1018E000BDE88901BDE80088BDE88901BDE8004880
:1018F000B619524141EB0101A3F101037047808009
:101900007F7E7D7C7B7A7978777676757473727159
:1019100071706F6E6E6D6C6C6B6A6A696868676611
:1019200066656464636362616160605F5F5E5E5DA3
:101930005D5C5C5B5B5A5A59595858575756565517
:1019400055555454535352525251515050504F4F79
:101950004F4E4E4D4D4D4C4C4C4B4B4B4A4A4A49C9
:10196000494948484847474747464646454545440C
:101970004444444343434342424242414141002B99
:1019800026D4770021D01CB54FEA370703B44FF0B7
:1019900010004FF010014FF000000FBCBDE81040E8
:1019A0000BF1010BBBF1010F08BF5FEA170722BF64
:1019B00012F1010211F101014FF0004143F1000366
:1019C00000F0004043EA00007047F9D35708DAE717
:1019D00046EA064613F1400F4FEA16461FDD13F1A3
:1019E000200FDFBF16430A46002120335B42C8D0D8
:1019F000C3F1200746EA064602FA07F74FEA164601
:101A000046EA0706C3F1200722FA03F201FA07F7B4
:101A100021FA03F14FF0000342EA0702B1E746EA78
:101A2000020646EA06464FEA164646EA0106BCBFEB
:101A300046EA0646360C4FF000034FF000024FF026
:101A400000019EE72DE9C048934630B491E8380084
:101A500007C831EA400C48BF34EA430C03D5FFF70E
:101A6000F2FDFFF78CFFF0BCBDE800882DE9C0480F
:101A7000934630B491E8380007C810F0804F08BF93
:101A800013F0804F03D100F005F8FFF778FFF0BCAA
:101A9000BDE8008820F07F4780EA030023F07F4CF8
:101AA00007EB0C03A3F57C5300F00040A3F1FE0309
:101AB00092F0000F00F0B38095F0000F00F07780F7
:101AC0002DE901494FEA11404FEA144621EA004846
:101AD00000FB06FC24EA064708FB06F607FB08F8AD
:101AE00000FB07F718EB06484CEB164C4FEA124B7D
:101AF00018EB07484FEA15464CEB174022EA0B4E0D
:101B00000BFB06FC25EA06470EFB06F607FB0EFE5E
:101B10000BFB07F71EEB064E4CEB164C4FF0000686
:101B20001EEB074E4CEB174B18EB0B0840F1000077
:101B300018EB0E0B58EB000840F100008F1A4FF025
:101B400000013CBFC943661B14BFB5EB040C002168
:101B50003CBFC943F61B4FEA17444EEA8E0E27EAF4
:101B600004454FEA1C4704FB07622CEA074C05FBBF
:101B700007F70CFB05F604FB0CFC16EB074642EBE3
:101B8000174216EB0C4642EB1C421BEB060658EBC9
:101B90000202414146EA9E0601D5BDE80189B61917
:101BA000524141EB0101A3F10103BDE801894FEA74
:101BB00014454FEA114724EA054621EA074C05FB84
:101BC00007F406FB07F70CFB06F105FB0CFC11EB19
:101BD000074144EB17444FEA124711EB0C4144EB29
:101BE0001C4422EA074C05FB07F206FB07F70CFB37
:101BF00006F605FB0CFC16EB074642EB174216EB0C
:101C00000C4642EB1C456A1854F1000148BF70476E
:101C1000B619524141EB0101A3F10103704795F060
:101C2000000F37D04FEA11424FEA144721EA02462B
:101C300024EA074C02FB07F106FB07F70CFB06F44E
:101C400002FB0CFC14EB074441EB17414FEA15472C
:101C500014EB0C4441EB1C4125EA074C02FB07F551
:101C600006FB07F70CFB06F602FB0CFC16EB07461F
:101C700045EB174516EB0C4645EB1C42121951F18A
:101C8000000148BF7047B619524141EB0101A3F171
:101C9000010370474FEA14454FEA114724EA05460D
:101CA00021EA074C05FB07F106FB07F70CFB06F2E0
:101CB0004FF0000605FB0CFC12EB074241EB17410D
:101CC00012EB0C4251EB1C4148BF7047921841EB9C
:101CD0000101A3F10103704721B1826842F00102C2
:101CE000826003E0826822F0010282607047000097
:101CF0000021084A1168084A1140D0E900231A431C
:101D000083681A43C3681A431143044AC2F8041390
:101D10007047000004230140E030FCFF0020014038
:101D200021B1826842F48072826003E0826822F40A
:101D300080728260704721B1826842F400728260D2
:101D400003E0826822F400728260704730B5024678
:101D5000002000235068104C20400D790C6844EAA4
:101D600005242043506090680C4C2040D1E9035476
:101D70002C438D682C434D7944EA45042043906000
:101D8000D06A20F470000C7D641EE4B2234340EA64
:101D90000350D06230BD0000FFFEFFFCFDF7FFC026
:101DA000F0B504460D4600200021092D11DDE06844
:101DB000A5F10A0606EB4607072606FA07F188434F
:101DC000A5F10A0606EB460603FA06F10843E060B1
:101DD0000CE0206905EB4507072606FA07F1884362
:101DE00005EB450603FA06F108432061072A0FDADE
:101DF000606B561E06EB86071F2606FA07F188431E
:101E0000561E06EB860605FA06F10843606322E0DB
:101E10000D2A0FDA206BD61F06EB86071F2606FA5F
:101E200007F18843D61F06EB860605FA06F108433C
:101E3000206310E0E06AA2F10D0606EB86071F267C
:101E400006FA07F18843A2F10D0606EB860605FAAD
:101E500006F10843E062F0BD816841F08041816095
:101E6000704700007FB505460C460121102001F0A7
:101E7000ABFE0295ADF804400020ADF80600ADF8C9
:101E80000C0001A90D4802F041FE012211460B4849
:101E900002F0F5FC0121094802F058FC36208DF8CB
:101EA000000001208DF8010003208DF802000120C0
:101EB0008DF80300684601F07DFB7FBD00100040F7
:101EC00000BFFEE71CB50121142001F05DFE3020AB
:101ED000009000208DF8040003208DF805000120FB
:101EE0008DF807006946094801F031F9802000901B
:101EF0006946074801F02BF93021044801F09DF9AB
:101F00008021034801F099F91CBD0000000802403F
:101F10000010024010B5044614B101202249087097
:101F20002148007848B31021204801F07BF948B1DE
:101F300020211E4801F076F920B180211C4801F0D3
:101F400071F9D0B90A200FF011F800201649087075
:101F50001021164801F066F908B9012010BD2021B2
:101F6000124801F05FF908B90220F7E78021104814
:101F700001F058F9A8B90320F0E710210B4801F04F
:101F800051F901280DD12021084801F04BF9012811
:101F900007D18021064801F045F9012801D1024905
:101FA00008700020DAE70000E40200200008024088
:101FB0000010024010B586B0002402210C4800F049
:101FC0006FF890B102210A4800F016F801AA00212A
:101FD000074800F0F5F800BF05E00DF10F00005DC7
:101FE00004490855641C082CF7DB06B010BD00003E
:101FF00000680040B4020020B1F5007F3AD00FDC49
:10200000202928D006DC01291CD004291DD008294C
:1020100040D11DE0402921D0B1F5807F3AD126E0A2
:10202000B1F5004F31D006DCB1F5806F25D0B1F5A8
:10203000006F2FD124E0B1F5803F12D0B1F5003F01
:1020400028D111E0154A826025E00822C26022E012
:102050001022C2601FE0082202611CE0102202610F
:1020600019E00822426016E01022426013E00422C8
:10207000426010E0042242600DE0042242600AE067
:10208000002282610422426005E000228261042273
:10209000426000E000BF00BF704700000101010086
:1020A00070B504460D46002660692840002871D0AE
:1020B000B5F5807F5CD010DC082D35D006DC012D15
:1020C00020D0022D24D0042D72D127E0102D31D044
:1020D000202D35D0402D6BD138E0B5F5004F60D0C4
:1020E00009DCB5F5007F49D0B5F5806F4CD0B5F56A
:1020F000006F5DD14FE0B5F5803F2DD0B5F5003FC5
:1021000056D12FE0A0682D4900F0D2F8064651E0E4
:10211000E068032100F0CCF806464BE0E0680821B7
:1021200000F0C6F8064645E0E068102100F0C0F86F
:1021300006463FE02069032100F0BAF8064639E080
:102140002069082100F0B4F8064633E02069102128
:1021500000F0AEF806462DE06068082100F0A8F80F
:10216000064627E06068102100F0A2F8064621E04C
:10217000A069012100F09CF806461BE0A06902213D
:1021800000F096F8064615E0A069042100F090F8EA
:1021900006460FE00FE0A069702100F089F80646BE
:1021A00008E06068042100F083F8064602E0FFE7DB
:1021B000002600BF00E00026304670BD010101008E
:1021C00010B500F5D87303EB01131B6803F004038B
:1021D0001372137A53B900F5D87303EB01131B681C
:1021E00040F2FF7404EA5353136009E000F5D8731A
:1021F00003EB01131B686FF0604404EAD3035360E0
:1022000000F5D87303EB01131B6803F0020353724C
:1022100000F5D87303EB01135B6803F00F039372AF
:1022200000F5D87303EB01135B681B0AD37400F548
:10223000D87303EB01139B68D37200F5D87303EBDB
:1022400001139B681C0A147300F5D87303EB011388
:102250009B681C0C547300F5D87303EB01139B6847
:102260001B0E937300F5D87303EB0113DB68D37374
:1022700000F5D87303EB0113DB681C0A147400F536
:10228000D87303EB0113DB681C0C547400F5D8738E
:1022900003EB0113DB681B0E937421B9C36843F091
:1022A0002003C36003E0036943F02003036110BD12
:1022B0000246002002EA01030BB1012000E00020E9
:1022C000704770B506460C4604F08000802808D19F
:1022D00004F07F0000EB800106F58E7000EBC10575
:1022E00007E004F07F0000EB800106F55D7000EB75
:1022F000C10504F07F00287004F08000C0096870F8
:102300002946304604F058FA002070BD70B50646E4
:102310000C4604F08000802808D104F07F0000EB18
:10232000800106F58E7000EBC10505E004EB840129
:1023300006F55D7000EBC1050020A87004F07F0079
:102340002870C4F3C01068702946304604F00CFAB7
:10235000002070BD2DE9F04106460D4690461F460F
:1023600005F08000802808D105F07F0000EB800197
:1023700006F58E7000EBC10407E005F07F0000EB6E
:10238000800106F55D7000EBC10405F07F00207050
:1023900005F08000C0096070C4F80880E7706078BC
:1023A00008B12078E080022F01D100202071214661
:1023B000304604F08DF90020BDE8F0812DE9F041B0
:1023C00005460E461746984606F07F0000EB800152
:1023D00005F55D7000EBC104E760C4F814800020CF
:1023E000A061607006F07F002070E878012800D1BD
:1023F0002761207820B92146284604F08DF803E0B3
:102400002146284604F039FA0020BDE8F08108B5DD
:1024100000220092009A61F30A1200920269126887
:10242000009B1A4303691A6008BD70B506460C4646
:1024300004F08000802808D104F07F0000EB8001C8
:1024400006F58E7000EBC10505E004EB840106F58E
:102450005D7000EBC1050120A87004F07F002870BA
:10246000C4F3C01068702946304604F0D4F9002047
:1024700070BD2DE9F04107460D461646984605F019
:102480007F0000EB800107F58E7000EBC104012096
:10249000607005F07F002070E66026610020A0617A
:1024A000C4F81480207820B92146384604F034F866
:1024B00003E02146384604F0E0F90020BDE8F08151
:1024C0001CB50446204603F0F2FFE068C0680090A7
:1024D000204604F095FB03280BD10020A0704FF498
:1024E0000070A080009820F4705000F5105000900B
:1024F00009E00120A0704020A080009820F47050D6
:1025000000F5A05000900098E168C860002001909C
:10251000019820F4005000F5005001900198E16806
:10252000486101201CBD0000F8B5054600240020CC
:102530000090284604F0A3FB064690E006F0010058
:1025400000287DD0E1B2284600F002FB0090009800
:1025500000F0010030B3012000FA04F72869406B55
:10256000B8432969486300200090009820F00100DA
:10257000401C009005F1180050F82400009981607B
:10258000E1B239480068426828469047E878012857
:1025900008D13CB940F21110405D042802D1284610
:1025A00004F065F80098C0F3C00060B1002000900E
:1025B000009820F008000830009005F1180050F84D
:1025C0002400009981600098C0F3001060B10020E1
:1025D0000090009820F010001030009005F11800D5
:1025E00050F82400009981600098C0F3801060B119
:1025F00000200090009820F040004030009005F14D
:10260000180050F82400009981600098C0F3400041
:1026100060B100200090009820F00200801C009023
:1026200005F1180050F82400009981600098C0F36B
:10263000C01028B12146284600F09EFA002000E094
:102640000BE00090009820F080008030009005F1B1
:10265000180050F8240000998160641C7608002E50
:102660007FF46CAF0120F8BD540400207CB5044613
:10267000002500200190204604F009FB06466FE08B
:1026800006F00100002869D0E9B2204604F007FBFB
:102690000190019800F00100C8B30020019001985A
:1026A00020F00100401C019004F1540050F8250076
:1026B00001998160E078012817D104F1540050F8A5
:1026C00025000069009005EB850104F55D7000EBC5
:1026D000C10080680099C1F31201411A05EB85021F
:1026E00004F55D7000EBC2008161E9B21E4800682C
:1026F000026820469047E078012808D13DB940F2B1
:102700001110005D052802D1204603F0B0FF0198AA
:10271000C0F3400060B100200190019820F0020059
:10272000801C019004F1540050F82500019981604B
:102730000198C0F3C00088B10B480068816820464A
:10274000884700200190019820F00800083001908F
:1027500004F1540050F82500019981606D1C760841
:10276000002E8DD101207CBD540400203EB50446CE
:10277000A07A70B1D4F80C010090009820F002000B
:102780000090009820F0010000900099D4F80C010E
:10279000016000200190019820F00100401C019090
:1027A00020694068019988432169486008480068A9
:1027B00081692046884700200290029820F000405E
:1027C00000F1004002900298E168486101203EBD9E
:1027D000540400207CB5044600200190019820F0AC
:1027E000100010300190E068806901998843E16829
:1027F0008861E068006A0090009800F00F0000EB2C
:10280000800104F55D7000EBC1050098C0F3434002
:1028100007282DD2DFE800F02C04051D1E2C1F0018
:1028200027E00098C0F30A1090B10098C0F30A1294
:102830002046E96804F03DFAE8680099C1F30A11FE
:102840000844E860A8690099C1F30A110844A86126
:102850000FE00EE00DE0082204F2CC51204604F017
:1028600028FAA8690099C1F30A110844A86100E098
:1028700000BF00BFE068806901990843E168886192
:1028800001207CBD38B5044608480068C168204670
:10289000884700200090009820F008000830009041
:1028A0000098E1684861012038BD00005404002010
:1028B0001FB50446002000904FF48970005D009021
:1028C0002348006841692046884720698068019054
:1028D00000200390039820F4006000F5006003904E
:1028E0000398E1684861A07A70B3019800F0010094
:1028F00050B340F21510005D012825D19DF800006D
:10290000032821D100200290029820F00100401CF1
:102910000290D4F80C01006802990843D4F80C1115
:102920000860029820F00200801C0290D4F80C018C
:10293000006802990843D4F80C1108600548006843
:1029400040F0060003490860012004B010BD0000FB
:102950005404002010ED00E030B587B0044600209C
:10296000029006900590049003900190029820F048
:102970000100401C02902069406802998843216947
:1029800048600021204604F011F900250BE0FF21EA
:1029900004F1180050F82500816004F1540050F84B
:1029A000250081606D1C6078A842F0D84FF0FF319F
:1029B0002069816106986FF30F00401C069006980D
:1029C00080B200F58030069006992069C1610598B3
:1029D00020F0080008300590059820F00100401C08
:1029E0000590059820F00200801C0590059920694B
:1029F0004161049820F00100401C0490049820F0EC
:102A0000080008300490049820F00200801C049014
:102A1000049920690161206900680390039820F4FB
:102A2000FE600390039920690160204603F01FFEB9
:102A300000200190019820F4805000F58050019012
:102A40000198E168486104480068016920468847A8
:102A5000012007B030BD0000540400202DE9F041F2
:102A600006460F463946304604F038F901214FF446
:102A7000897081550021801C8155002511E005EBEE
:102A8000850106F58E7000EBC10401206070257091
:102A9000E5800020E0704020A0600020E0606061E0
:102AA0006D1C7078A842EAD8002510E005EB85017E
:102AB00006F55D7000EBC104002060702570E580B4
:102AC000E0704020A0600020E06060616D1C7078C4
:102AD000A842EBD8304603F0D9FC304603F004FBA3
:102AE0000021304604F062F9304603F090FB304696
:102AF00004F025F8BDE8F08138B5044600200090C8
:102B000007480068C16920468847009820F4801073
:102B100000F5801000900098E1684861012038BD00
:102B20005404002038B5044600200090074800688F
:102B3000016A20468847009820F4001000F5001034
:102B400000900098E1684861012038BD54040020DD
:102B500030B5024615692B6915696C6B24FA01F5CD
:102B600005F0010543EAC51302F1180555F8215097
:102B7000AD6805EA030030BD2DE9F84307460E466F
:102B800000250020009006EB860107F58E7000EB13
:102B9000C104D4E90501451AA068A84200D2A5687D
:102BA000E81C4FEA900807F1180050F826008069E9
:102BB00000901BE0D4E90501451AA068A84200D2A4
:102BC000A568E81C4FEA9008ABB2F2B23846E1685B
:102BD00004F02EF9E0682844E060A0692844A06170
:102BE00007F1180050F8260080690090009880B224
:102BF000404506D9D4E90510884202D26069002810
:102C0000D8D10120BDE8F88310B50949094800F082
:102C100043F958B10021074800F078F84FF0C0514F
:102C2000044800F059F800200349087010BD000066
:102C30000080001858600240B202002010B5084918
:102C4000084800F029F950B10021064800F05EF86C
:102C50000549044800F040F800200449087010BD00
:102C6000208000207060024020000020A002002090
:102C700010B50849084800F00FF950B10749064857
:102C800000F02AF80021044800F040F80020044930
:102C9000087010BD00802020A060024000002020AD
:102CA000AC02002010B50949094800F0F5F858B108
:102CB0000021074800F02AF84FF02051044800F0A6
:102CC0000BF800200349087010BD000000800028A8
:102CD000B8600240A60200200246094B9A4201D287
:102CE000084801E00648103801F000531BB1064BBC
:102CF0000B40C36002E0044B0B4083607047000050
:102D000010640240006002407D0F7D0F21B1026817
:102D100042F00102026003E0026822F00102026058
:102D200070470000016821F001010160002101608D
:102D300041608160C1600161212141614A4988424D
:102D400004D13D21484A103A91608CE0464918313F
:102D5000884205D14FF47461434A103A916082E091
:102D600041493031884205D14FF474113E4A103A3E
:102D7000916078E03C494831884205D14FF0746158
:102D8000394A103A91606EE037496031884204D187
:102D90003649354A103AD16065E033497831884286
:102DA00004D13349304A103AD1605CE02E49903169
:102DB000884204D12F492C4A103AD16053E02A4965
:102DC000A831884205D14FF03D51274A103AD160D1
:102DD00049E02949884204D13D21274A083A116037
:102DE00041E025491831884205D14FF47461224AE7
:102DF000083A116037E020493031884205D14FF45C
:102E000074111D4A083A11602DE01B49483188426F
:102E100005D14FF07461184A083A116023E0164951
:102E20006031884204D11149134A121F11601AE01F
:102E300011497831884204D10D490F4A121F11609F
:102E400011E00D499031884204D10A490A4A121F03
:102E5000116008E00849A831884204D14FF03D5183
:102E6000054A121F11607047106002403D000020AB
:102E7000400F002000003D20106402400146002069
:102E80000A6802F001020AB1012000E00020704748
:102E90000146486880B2704770B5024600200024A1
:102EA0000025124EB24201D2114B01E00F4B103BF4
:102EB000104E0E4036B11E2606EAD124166806EAE8
:102EC000040502E0566906F0800501F000560EB1D7
:102ED0005C6800E01C68084E344004EA010616B144
:102EE0000DB1012000E0002070BD00001064024020
:102EF000006002403C0F3C0F7D0F7D0F10B501F0CC
:102F000080034BB122B1436943F08003436103E086
:102F1000436923F08003436180290BD02AB1036801
:102F200001F01E042343036004E0036801F01E0463
:102F3000A343036010BD000010B500220268134BCC
:102F40001A40CC680B6823434C6923438C692343A4
:102F5000CC6923430C6A23434C6A23438C6A234382
:102F60004C6B23438C6B23431A430260426922F06B
:102F70000702D1E90B3423431A4342610B694360D2
:102F80004B6883608B68C36010BD00003F801CF0FD
:102F900041607047704700000149086070470000B9
:102FA000143C014030B10749096841F48061054A89
:102FB000116005E00349096821F48061014A11604C
:102FC00070470000003C024070B504460A460026E7
:102FD000092502B909E0012A01D1160205E0022AF9
:102FE00001D1160201E04FF4407600F09FF805464B
:102FF000092D28D11548006820F440701349086055
:1030000008460068304308600846006820F0F80071
:1030100008600846006844F0020108430B49086054
:103020000846006840F48030086000F07FF80546EC
:103030000648006820F0020004490860084600685D
:1030400020F0F8000860284670BD0000103C0240E7
:1030500009201349096801F48031B1F5803F01D19D
:1030600001201CE00E49096801F0100109B1062099
:1030700015E00B49096801F4807109B102200EE0E6
:103080000749096801F0EF0109B1072007E0044989
:10309000096801F0020109B1082000E00920704729
:1030A0000C3C02400348006840F0004001490860C1
:1030B00070470000103C024030B502460C4609251E
:1030C00000F034F80546092D19D10E48006820F4A7
:1030D00040700C4908600846006840F400700860C1
:1030E0000846006840F001000860146000F01EF817
:1030F00005460448006820F001000249086028469F
:1031000030BD0000103C02400548006800F000405F
:1031100028B1044802490C39086003480860704728
:10312000103C024023016745AB89EFCD08B509206B
:103130000090FFF78DFF009002E0FFF789FF0090FD
:103140009DF800000128F8D09DF8000008BDF0B5FA
:103150000A4600210023002400BF3DE0012505FAB6
:1031600001F3156805EA03049C4234D105684F0059
:103170000326BE40B543056015794E00B54006688C
:10318000354305601579012D02D01579022D16D130
:1031900085684F000326BE40B543856055794E00D3
:1031A000B540866835438560456801268E40B54345
:1031B0004560456896798E40B6B235434560C5682E
:1031C0004F000326BE40B543C560D5794E00B540DB
:1031D000C6683543C560491C1029BFD3F0BDF0B5A2
:1031E000002300244D07ED0E02FA05F3CE1000F186
:1031F000200555F826504E07F70E0F26BE40B54362
:10320000CF1000F1200646F82750CE1000F120051F
:1032100055F8265045EA0304CE1000F1200545F884
:103220002640F0BD0246002013690B400BB101207F
:1032300000E0002070474183704701837047000021
:103240002DE9F04F2DED048B85B00446894600BF73
:1032500000BF00F03BFF00F067FF4FF0000AB5E051
:10326000B9F1000F53D19448007800F0800018B3F2
:103270009148007800F03F00C61705464FF6FF72F0
:1032800000212B46A3FB02CB06FB02B005FB010687
:1032900065468A4800882D1846F100068848D0E91E
:1032A000001049197041864AC2E9001000BF002091
:1032B0008149087000F00AFF8248007800F0800021
:1032C00028B38048007800F03F004FEAE0780746D6
:1032D0004FF6FF7100203A46A2FB01CB08FB01B17B
:1032E00007FB00186746784800883F1848F1000837
:1032F0007648D0E90010C91940EB0800734AC2E9CA
:10330000001000BF00206F49087000F00DFFB9F1F8
:10331000010F27D16848007800F0800010B366489C
:10332000007800F03F00C61705464FF6FF720020F8
:103330002946A1FB02CB06FB02B205FB002665462F
:103340005E4800882D1846F100065D48D0E900105F
:10335000491970415A4AC2E90010002056490870C4
:1033600000F0B4FEB9F1020F2BD15648007800F0FE
:10337000800030B35348007800F03F004FEAE07817
:1033800007464FF6FF734FF0000C3846A0FB032BA7
:1033900008FB03B107FB0C1817464B4800883F1881
:1033A00048F100084948D0E90010C91940EB08006D
:1033B000464AC2E9001000BF00204249087000F0F0
:1033C000B3FE64200DF0D2FD0AF1010AA245FFF61A
:1033D00047AFB9F1000F06D0B9F1010F2AD0B9F10A
:1033E000020F57D13EE022460023354903C9FCF7BE
:1033F000D3FFCDE900010FF0D1FA9FED350B53EC6F
:10340000102B0FF01FF90FF037F80290224600231F
:103410002E4903C9FCF7C0FFCDE900010FF0BEFA49
:103420009FED2B0B53EC102B0FF00CF90FF024F841
:1034300003902FE022460023214903C9FCF7ACFF8B
:10344000CDE900010FF0AAFA9FED210B53EC102BF0
:103450000FF0F8F80FF010F802909FED1F0A8DEDB5
:10346000030A17E09FED1C0A8DED020A2246002395
:10347000164903C9FCF790FFCDE900010FF08EFA61
:103480009FED130B53EC102B0FF0DCF80EF0F4FF54
:10349000039000BF00BF0021094A116051600B4A30
:1034A000116051609DED020ADDED030A05B0BDEC2F
:1034B000048BBDE8F08F0000480200204A02002083
:1034C000500200204C0200204E0200205802002032
:1034D0000000000000004D400000000070B50646EE
:1034E0002C480078012852D02B480068B0F5006FB6
:1034F00002D1002028490860274800682749096848
:10350000884203D100202349087070BD224800681A
:1035100022490968884206D91F480068C0F5006042
:103520001F49086006E01D4800681B490968401AE9
:103530001B4908601A48006840280ED916480088C0
:1035400084B240251448006840301349086014488C
:1035500000684038124908600FE00F48008884B2C4
:103560000F48008885B20C4800680D490968084476
:103570000949086000200A490860012005490870CF
:10358000084802192B4681213046FEF772FF00BF22
:10359000BBE70000A40300209C0300209803002048
:1035A000A0030020174E002000BFFEE700BFFEE78B
:1035B0007047000070B5002100230F22C4781CB3AF
:1035C000174C246804F4E064C4F5E064C4F30721F4
:1035D000C1F10404E3B20A4144789C40E1B284782A
:1035E000144021430C07210E0E4C057861550478D8
:1035F00004F01F050124AC4005786D11AD0005F104
:10360000E025C5F8004109E0047804F01F05012415
:10361000AC40054D0678761145F8264070BD000097
:103620000CED00E000E400E080E100E0024901432D
:10363000024A1160704700000000FA050CED00E03E
:1036400010B5024802F0EAF810BD0000C8100020D2
:1036500010B50948807A50B10848006820F006008B
:103660000649086000F0DAFD034803F0C6FB4FF49A
:103670008020FFF791FC10BDC810002010ED00E085
:1036800001460148405C7047B82F0020002004E04C
:103690000021034A1154411CC8B20928F8DB7047C5
:1036A000B82F002038B504460120009000201D49A5
:1036B0004870012000902DE0BDF80000204018B1B6
:1036C00001201949086002E0002017490860012024
:1036D0001649086005200DF055FC00201449C1F87A
:1036E000BC0205200DF04EFC01201149C1F8BC02BE
:1036F0000846D0F8280230B10A484078BDF80010DA
:10370000084308494870BDF800004FF6FF7101EA10
:1037100040000090BDF80000FF28CDDD10200DF026
:1037200031FC38BDB82F0020AC824042BC0242427E
:103730000000424210B5FFF7A9FF00F0CBF80F4898
:10374000C0780E49097940EA01200D49088000241B
:103750000FE00C4810F81400401E012101FA00F09F
:1037600007490988084010B9601CC0B210BD601C30
:10377000C4B2102CEDDB0020F8E70000B82F0020C9
:10378000BC020020C002002010B5002013490860D0
:1037900010200DF0F7FB0120FFF784FF4320FFF717
:1037A00081FF0020FFF77EFF0120FFF77BFF002055
:1037B000FFF778FF0020FFF775FF0020FFF772FF8B
:1037C0000020FFF76FFF0020FFF76CFF0120044986
:1037D000C1F8A80210200DF0D5FB10BDA882404210
:1037E0000080404210B500201349086010200DF001
:1037F000C9FB0120FFF756FF4320FFF753FF0020CE
:10380000FFF750FF0020FFF74DFF5A20FFF74AFF58
:103810005A20FFF747FF5A20FFF744FF5A20FFF7CF
:1038200041FF5A20FFF73EFF01200449C1F8A802DA
:1038300010200DF0A7FB10BDA8824042008040423E
:103840001CB50121122000F09FF94FF44040009078
:1038500001208DF8040000208DF8060003208DF86B
:10386000050001208DF8070069461848FFF76FFC36
:103870004FF440411548FFF7E0FC4FF440600090E2
:1038800001208DF8040000208DF8060003208DF83B
:10389000050001208DF8070069460D48FFF757FC29
:1038A0004FF440610A48FFF7C8FC4FF48060009075
:1038B00000208DF8040003208DF8050001208DF80C
:1038C000070069460148FFF742FC1CBD001002409A
:1038D000000402401CB5002001900120009000204F
:1038E0002549086025490878FFF7DCFE2349487818
:1038F000FFF7D8FE0220019035E00120009026E07D
:1039000001201F49086005200DF03CFB00201D49E7
:10391000C1F8BC0205200DF035FB01201949C1F8A2
:10392000BC020846D0F8280250B117489DF8041090
:10393000405CBDF80010084313499DF804208854EA
:10394000BDF800004FF6FF7101EA40000090BDF89D
:103950000000FF28D4DD10200DF014FB9DF80400BA
:10396000401CC0B201909DF804000928C5DB01206D
:10397000014908601CBD0000A8824042BE02002030
:10398000BC02424200004242B82F002010B586B06F
:1039900004460720FFF774FE01900820FFF770FE31
:1039A00002900520FFF76CFE03900620FFF768FEEB
:1039B0000490FFF7BFFE0590142201A92046FCF7F2
:1039C000EEFE06B010BD000010B500200A490860E8
:1039D0000A490878FFF766FE08494878FFF762FE53
:1039E00001200749C1F8A80206484078732801D190
:1039F000002010BD0120FCE7A8824042BE0200204A
:103A000000804042B82F002010B500F011F800F0FF
:103A10000FF800F00DF8FFF7B7FE00F02BF800F0FC
:103A200085F86821084600F051F8FFF7DBFE10BD6D
:103A300010B500200D49086010200DF0A3FA0120F8
:103A4000FFF730FE4220FFF72DFE0020FFF72AFE91
:103A50000020FFF727FE0020FFF724FE0120044985
:103A6000C1F8A80210200DF08DFA10BDA8824042C6
:103A70000080404210B50020124908600120FFF785
:103A800011FE4420FFF70EFE0020FFF70BFE012081
:103A9000FFF708FEEE20FFF705FE0020FFF702FE0D
:103AA0000020FFF7FFFD0020FFF7FCFD0020FFF7DF
:103AB000F9FD01200449C1F8A80210200DF062FAB6
:103AC00010BD0000A88240420080404270B505460B
:103AD0000C4600201349086010200DF053FA012015
:103AE000FFF7E0FD4220FFF7DDFD0020FFF7DAFDE4
:103AF0002846FFF7D7FD2046FFF7D4FD0020FFF74B
:103B0000D1FD0020FFF7CEFD0020FFF7CBFD002008
:103B1000FFF7C8FD01200449C1F8A80210200DF0EC
:103B200031FA70BDA88240420080404210B50020AA
:103B30000D49086010200DF025FA0120FFF7B2FDB5
:103B40004D20FFF7AFFD0020FFF7ACFD0020FFF791
:103B5000A9FD0120FFF7A6FD01200449C1F8A80234
:103B600010200DF00FFA10BDA882404200804042A4
:103B700010B54FF480410248FFF754FB10BD000020
:103B8000001002407047000029B1064A1268024343
:103B9000044B1A6004E0034A12688243014B1A6026
:103BA000704700003038024029B1064A12680243CB
:103BB000044B1A6004E0034A12688243014B1A6006
:103BC000704700003438024029B1064A12680243A7
:103BD000044B1A6004E0034A12688243014B1A60E6
:103BE000704700004038024029B1064A126802437B
:103BF000044B1A6004E0034A12688243014B1A60C6
:103C00007047000044380240F0B500210022002433
:103C1000022500260223324F3F6807F00C0121B134
:103C2000042905D0082937D105E02E4F076036E07A
:103C30002D4F076033E02A4F3F1F3F68C7F3805680
:103C4000274F3F1F3F6807F03F036EB1264FB7FB7A
:103C5000F3F7DFF88CC0ACF1040CDCF800C0CCF357
:103C6000881C07FB0CF40CE01E4FB7FBF3F7DFF8E2
:103C700070C0ACF1040CDCF800C0CCF3881C07FB6E
:103C80000CF4174F3F1F3F68C7F301477F1C7D00AF
:103C9000B4FBF5F7076002E0124F076000BF00BFFA
:103CA0000F4F3F6807F0F0010909104F7A5C076871
:103CB000D74047600A4F3F6807F4E051890A0B4F2D
:103CC0007A5C4768D7408760054F3F6807F46041DA
:103CD000490B064F7A5C4768D740C760F0BD0000CB
:103CE000083802400024F40000127A0098010020F5
:103CF00001461C48814201D2002070471A48814287
:103D000001D20820F9E71948814201D21020F4E7D6
:103D10001748814201D21820EFE71648814201D2AC
:103D20002020EAE71448814201D22820E5E7134821
:103D3000814201D23020E0E71148814201D238208F
:103D4000DBE71048814201D24020D6E70E4881428D
:103D500001D24820D1E70D48814201D25020CCE762
:103D60005820CAE7004000080080000800C0000892
:103D70000000010800000208000004080000060816
:103D80000000080800000A0800000C0800000E08E7
:103D900030B503460C461546002206E0184600F0F2
:103DA00007F844F822001B1D521CAA42F6D330BD6E
:103DB00001460868704700002DE9F04704460E46AA
:103DC00017464FF009080025A946B4F1006F02D349
:103DD00004F0030008B1BDE8F087FFF795F9002073
:103DE000FFF7E0F8254604EB87091848854215D20D
:103DF00011E02846FFF7DCFF401C58B12846FFF7CA
:103E000077FF82460221FFF7DFF88046B8F1090FFD
:103E100001D002E02D1D4D45EBD300BFB8F1090FD5
:103E20000CD108E020463168FFF746F9092800D098
:103E300003E0241D361D4C45F4D300BF0120FFF7DD
:103E4000B1F8FFF72FF900BFC5E700000000FF1F22
:103E5000704700000CB500200190009034480068C5
:103E600040F480303249086000BF3148006800F4F7
:103E7000003000900198401C0190009818B90198FA
:103E8000B0F5A04FF1D12A48006800F4003010B11D
:103E90000120009001E0002000900098012846D108
:103EA00023484030006840F080502149403108608C
:103EB0002048006840F440401E4908601C48083013
:103EC00000681B49083108600846006840F400405B
:103ED00008600846006840F4A05008601648091FB2
:103EE0000860081F006840F08070091F086000BF6C
:103EF0000F48006800F000700028F9D040F205700B
:103F00000E4908600A480830006820F0030008499C
:103F1000083108600846006840F00200086000BFF1
:103F200003480830006800F00C000828F8D10CBDE8
:103F3000003802400070004008544007003C024036
:103F4000014880ED000A7047E002002030B589B0DA
:103F500004460D4601218804FFF746FE0121022098
:103F6000FFF712FE4FF40070079002208DF820003A
:103F700003208DF8210000208DF8220002208DF80A
:103F8000230007A91F48FFF7E2F8032209211D4873
:103F9000FFF725F9ADF8105005940020ADF8120098
:103FA000ADF8180004A9184800F0B0FD0020ADF8E5
:103FB0000400ADF806000120ADF808000020ADF8BF
:103FC0000A00ADF80C0001A90F4800F018FC01220E
:103FD00003210D4800F053FC01210B4800F0B6FB13
:103FE0001A208DF8000002208DF8010000208DF8C5
:103FF000020001208DF803006846FFF7DBFA09B0E4
:1040000030BD0000000402400048014030B589B0D6
:1040100004460D4601214804FFF7E6FD0121022078
:10402000FFF7B2FD4FF48070079002208DF820005A
:1040300003208DF8210000208DF8220002208DF849
:10404000230007A91F48FFF782F8032208211D4813
:10405000FFF7C5F8ADF8105005940020ADF8120038
:10406000ADF8180004A9184800F050FD0020ADF884
:104070000400ADF806000120ADF808000020ADF8FE
:104080000A00ADF80C0001A90F4800F0B8FB0122AE
:1040900003210D4800F0F3FB01210B4800F056FB13
:1040A00019208DF8000003208DF8010000208DF804
:1040B000020001208DF803006846FFF77BFA09B083
:1040C00030BD0000000402400044014010B5022150
:1040D0000548FFF7B2F814200CF054FF0221024803
:1040E000FFF7A9F810BD0000001002401CB5012127
:1040F0001020FFF749FD0220009001208DF80400F8
:1041000000208DF8060003208DF8050001208DF8B1
:10411000070069460348FFF71AF802210148FFF734
:104120008AF81CBD0010024010B501210548FFF7B8
:1041300084F814200CF026FF01210248FFF77BF8D9
:1041400010BD0000001002401CB501211020FFF737
:104150001BFD012000908DF8040000208DF8060062
:1041600003208DF8050001208DF8070069460448FA
:10417000FEF7EDFF01210248FFF75DF81CBD0000CE
:104180000010024010B5044624B1012C11D0022CBD
:104190001FD116E0FFF7AAFFA7214FF6FF70FFF728
:1041A000D5FEFFF7D1FFA7214FF6FF70FFF72EFFD7
:1041B0000FE0FFF79BFFA7214FF6FF70FFF7C6FE4A
:1041C00007E0FFF7C1FFA7214FF6FF70FFF71EFFC3
:1041D00000BF00BF10BD00000D480068401C0C4926
:1041E00008600C4800684FF47A7148430849096830
:1041F000B1FBF0F200FB121048B907480068401C00
:104200000549086003480068401C0249086070477F
:10421000F4020020F8020020F002002010B515483A
:10422000006840F47000134908601348006840F0CB
:1042300001001149086000200F49083108600E484C
:1042400000680E4908400C4908600D48091D0860C7
:10425000081F006820F48020091F0860002006491C
:104260000C310860FFF7F6FD4FF00060014980391E
:10427000086010BD88ED00E000380240FFFFF6FE48
:1042800010300024F0B50C46154600210022068CA3
:104290004FF6FE773E400684018B028C4FF60C767B
:1042A00031407E1C06EA03162E4331434FF6F57665
:1042B000324044F00106324301830284F0BDF0B580
:1042C0000C461546002100220026078C4FF6EF7C95
:1042D00007EA0C070784018B028C4FF6FF7707EA89
:1042E000041640F6FF4739404FF6FF7707EA0337D9
:1042F00039434FF6FF7707EA052739434FF65F77D3
:104300003A4046F010073A4301830284F0BDF0B50D
:104310000C461546002100220026078C4FF6FF6C44
:1043200007EA0C070784818B028C4FF6FF7707EAB8
:1043300004264FF60C7739404FF6FF7707EA03174C
:104340002F4339434FF2FF573A4046F480773A43C0
:1043500081830284F0BDF0B50C4615460021002291
:104360000026078C4EF6FF7C07EA0C070784818B3A
:10437000028C4FF6FF7707EA043640F6FF473940D4
:104380004FF6FF7707EA052739434FF6FF7707EA2D
:104390000337394345F6FF773A4046F480573A43AE
:1043A00081830284F0BD000010B53048007800F031
:1043B0008000002854D101212D4800F00FFAD0B11F
:1043C0002A48007800F04000A8B12848007800F0A2
:1043D0003F003F280AD12548007840F0800023495B
:1043E00008704FF6FF702349088004E01F480078EA
:1043F000401C1E49087002211D4800F0EFF978B3F7
:104400001A48007800F0400078B11848007840F071
:10441000800016490870164800F0DDF9154908803B
:104420000021134800F072FA1AE000200F490870CA
:10443000104908800D48007840F040000B49087092
:1044400000210B4800F082F90021094800F02FFB01
:104450000221074800F05AFA0121054800F076F9D8
:104460000321034800F06FF910BD0000480200204E
:10447000004801404A02002010B53048007800F0A2
:104480008000002854D101212D4800F0A7F9D0B1B7
:104490002A48007800F04000A8B12848007800F0D1
:1044A0003F003F280AD12548007840F0800023498A
:1044B00008704FF6FF702349088004E01F48007819
:1044C000401C1E49087002211D4800F087F978B38E
:1044D0001A48007800F0400078B11848007840F0A1
:1044E000800016490870164800F075F915490880D3
:1044F0000021134800F00AFA1AE000200F49087062
:10450000104908800D48007840F040000B490870C1
:1045100000210B4800F01AF90021094800F0C7FA01
:104520000221074800F0F2F90121054800F00EF9D8
:104530000321034800F007F910BD00004C020020E1
:10454000004401404E0200202DE9F041012158486D
:1045500000F044F901287DD156480068A0F5FE40DE
:10456000FF3807B24FF08040406AA0F5FE40FF38A8
:1045700004B251480068A0F5FE40FF3805B24F482C
:104580000068A0F5FE40FF3806B200EE107AB8EEE3
:10459000C00A4B48D0ED000A80EE201A9FED490A70
:1045A00021EE000A484880ED000A00EE104AB8EEFD
:1045B000C00A4348D0ED000A80EE201A9FED410A60
:1045C00021EE000A404880ED010A00EE105AB8EED4
:1045D000C00A3B4890ED001AC0EE010A9FED390A6F
:1045E00020EE800A384880ED020A00EE106AF8EEEC
:1045F000C00A334890ED001A80EE810ADFED310ADF
:1046000020EE200A304880ED030A00EE107AF8EE22
:10461000C00A2B4890ED001A80EE810A2A48D0ED9E
:10462000040A30EE200A80ED040A00EE104AF8EE8B
:10463000C00A234890ED001A80EE810A2248D0ED8E
:10464000050A30EE200A80ED050A00EE105AB8EE99
:10465000C00A00E026E01A4890ED001AC0EE010AF8
:10466000194890ED060A30EE800A80ED060A00EE49
:10467000106AF8EEC00A124890ED001A80EE810A26
:104680001148D0ED070A30EE200A80ED070A47F600
:10469000FF704FF080414862074908600749086091
:1046A000044908600121024800F04DF8BDE8F0819E
:1046B00000100040240C0040240400402408004066
:1046C000E002002000001644C42F002021B102881F
:1046D00042F08002028004E002884FF67F731A40A5
:1046E000028070470A884B881A438B881A43CB880C
:1046F0001A430B891A434B891A438B891A43A0F832
:104700004420704730B5002301248C40A3B2048CB0
:104710009C430484048C02FA01F5ADB22C4304845A
:1047200030BD30B5002304248C40A3B2048C9C43DC
:104730000484048C02FA01F5ADB22C43048430BD2C
:10474000CA4302827047CA430282704721B102887D
:1047500042F00102028004E002884FF6FE731A4024
:104760000280704731B1B0F8442042F40042A0F812
:10477000442005E0B0F84420C2F30E02A0F8442023
:1047800070471AB183890B43838102E083898B438D
:1047900083817047F0B50C4615461E460021002265
:1047A00000230189028B038C4FF6F87739402143AF
:1047B0004FF6FC473A4040F201173A434FF6DD7797
:1047C0003B404FF6FF7707EA06172F433B43018133
:1047D00002830384F0BD0146486B704730B5024642
:1047E000002000230024158A05EA0103958905EAC3
:1047F000010413B10CB1012000E0002030BD70B500
:1048000005460C46208850B92389A288618828462D
:10481000FFF738FDE188284600F04BF925E02088B5
:1048200004280AD12389A28861882846FFF747FD1A
:10483000E188284600F046F917E0208808280AD1C8
:104840002389A28861882846FFF761FDE188284610
:1048500000F045F909E02389A28861882846FFF71E
:104860007AFDE188284600F043F970BD00210180FF
:104870004180012181800021C180018170471AB1EE
:1048800083890B43838102E083898B438381704753
:1048900070B5002400220023058C4FF6FE763540CB
:1048A0000584028C8388048B4FF68F752C40B51ECF
:1048B0002C400D882C43751E2A408D892A434D8833
:1048C0002A43104DA84202D00F4DA84213D14FF6F3
:1048D000F7752A40CD892A434FF6FB752A408D880B
:1048E0002A434FF6FF652B404FF6FF552B400D8AAC
:1048F0002B434D8A2B43838004838D684563028458
:1049000070BD000000000140000401400A46002183
:10491000018C4FF6FD7319401143018470470A461C
:104920000021018B4FF6F773194011430183704743
:1049300070B5002400220023058C4FF6EF76354039
:104940000584028C8388048B48F6FF752C404FF653
:10495000FF452C400D884FF6FF7606EA05252C43CF
:104960004FF6DF752A408D8906EA05152A434D88E2
:1049700006EA05152A43154DA84202D0144DA84257
:104980001DD14FF67F752A40CD894FF6FF7606EA96
:1049900005152A434FF6BF752A408D8806EA05158E
:1049A0002A434FF6FF352B404FF2FF752B400D8AFF
:1049B00006EA85052B434D8A06EA85052B4383804D
:1049C00004838D688563028470BD0000000001408F
:1049D000000401400A460021018B4FF2FF73194089
:1049E0004FF6FF7303EA0223194301837047000067
:1049F00070B5002400220023058C4FF6FF66354079
:104A00000584028C8388848B4FF68F752C404FF67B
:104A1000FC752C400D882C434FF6FF552A408D899C
:104A20004FF6FF7606EA05252A434D8806EA052556
:104A30002A43154DA84202D0144DA8421DD14FF271
:104A4000FF752A40CD894FF6FF7606EA05252A43F1
:104A50004FF6FF352A408D8806EA05252A434EF693
:104A6000FF752B404DF6FF752B400D8A06EA0515A4
:104A70002B434D8A06EA05152B43838084838D687A
:104A8000C563028470BD00000000014000040140C5
:104A90000A460021818B4FF6F77319401143818339
:104AA00070474163704781637047C16370474162DB
:104AB0007047028B4FF6F3731A400283028B0A434E
:104AC00002837047028B4FF2FF331A400283028B3E
:104AD0004FF6FF7303EA01231A4302837047828B68
:104AE0004FF6F3731A408283828B0A4382837047A6
:104AF000828B4FF2FF331A408283828B4FF6FF7313
:104B000003EA01231A4382837047000000220288CF
:104B1000184B98420ED0184B98420BD0B0F1804FF2
:104B200008D0164B984205D0154B984202D0154B31
:104B3000984204D14FF68F731A404B881A43124B98
:104B4000984207D0114B984204D04FF6FF431A40C9
:104B50000B891A4302804B68C3620B880385054B9F
:104B6000984202D0044B984201D18B7A03860123EC
:104B700083827047000001400004014000040040AF
:104B800000080040000C00400010004000140040ED
:104B90004FF0FF314160002101800181418081722D
:104BA0007047000010B540F224410F4800F0C5FAEC
:104BB000C0B100210D48FEF7A9F80B4800880A484B
:104BC000001D00880A490948FEF786F84FF4607115
:104BD0000648FEF7DDF901210448FEF797F80120A9
:104BE0000449087010BD0000004C004040600240C5
:104BF00000003D10A102002010B540F224410E48F3
:104C000000F09BFAB8B100210C48FEF77FF80A4883
:104C10000088094880880A490848FEF75DF84FF483
:104C200060710648FEF7B4F901210448FEF76EF8FA
:104C300001200449087010BD00500040106002407F
:104C40003D008010A702002010B50248006807F060
:104C500039F910BDFC02002000B591B001214805D2
:104C6000FEF792FF01228021414800F050FA012214
:104C700040213F4800F04BFA3E48FEF753F800BF92
:104C80003C48FEF7FBF80028FAD14FF00060029094
:104C90003748001D0390384804904020059037485D
:104CA00000880690002007904FF480600890002054
:104CB00009900A900B904FF480300C9000200D90DA
:104CC00003200E9000200F90109002A92948FEF7B3
:104CD00033F911208DF8040000208DF80500012023
:104CE0008DF806008DF8070001A8FEF763FC01228D
:104CF00010212048FEF702F91E481838FEF712F876
:104D000000BF1C481838FEF7B9F80028F9D14FF059
:104D1000006002901648001D03901948049000207E
:104D200005904FF460700690002007904FF480606B
:104D30000890002009900A900B904FF400300C90DE
:104D400000200D9003200E9000200F90109002A9DB
:104D500008481838FEF7F0F8012106481838FDF722
:104D6000D5FF0020074908700749087011B000BD41
:104D700000440040A0600240B8210020A8020020AA
:104D800038250020AD020020AC02002010B540F212
:104D90002441124800F0D1F9F8B100211048FDF784
:104DA000B5FF0E4800880D48001D00880C48FEF72E
:104DB0006FF8C0F560700B4908800B490848FDF793
:104DC0008BFF4FF460710648FEF7E2F801210448BA
:104DD000FDF79CFF01200549087010BD004400400C
:104DE00088600240AA020020400F0020AD0200208F
:104DF00010B588B0044601210820FEF7C5FE012148
:104E00004804FEF7E1FE6020069002208DF81C00A9
:104E10008DF81D0000208DF81E0001208DF81F0068
:104E200006A91D48FEF793F9072205211A48FEF747
:104E3000D6F9072206211848FEF7D1F9029400207E
:104E4000ADF80C00ADF80E00ADF81000ADF8140090
:104E50000C20ADF8120002A9104800F0BDF90121A4
:104E60000E4800F048F9012240F224410B4800F0BE
:104E70008EF926208DF8040000208DF805008DF8AD
:104E8000060001208DF8070001A8FEF793FBFFF74D
:104E9000E3FE08B010BD0000000C024000440040DA
:104EA00000B591B001214805FEF76EFE0122802178
:104EB000414800F02CF9012240213F4800F027F939
:104EC0003E48FDF72FFF00BF3C48FDF7D7FF002805
:104ED000FAD14FF0006002903748001D0390384827
:104EE00004904020059037480088069000200790E5
:104EF0004FF480600890002009900A900B904FF4C6
:104F000080300C9000200D9003200E9000200F9018
:104F1000109002A92948FEF70FF80E208DF8040022
:104F200000208DF8050001208DF806008DF807009F
:104F300001A8FEF73FFB012210212048FDF7DEFF0C
:104F40001E483038FDF7EEFE00BF1C483038FDF734
:104F500095FF0028F9D14FF0006002901648001D1F
:104F6000039019480490002005904FF4607006905B
:104F7000002007904FF480600890002009900A906C
:104F80000B904FF400300C9000200D9003200E90F9
:104F900000200F90109002A908483038FDF7CCFF90
:104FA000012106483038FDF7B1FE0020074908709E
:104FB0000749087011B000BD004800405860024029
:104FC000B8280020AE020020382C0020B3020020B8
:104FD000B202002010B540F224410F4800F0ADF8B5
:104FE000C0B100210D48FDF791FE0B4800880A482A
:104FF000001D00880A490948FDF76EFE4FF46071F4
:105000000648FDF7C5FF01210448FDF77FFE01209A
:105010000449087010BD00000048004028600240AC
:10502000400F0010B302002010B588B004460121E3
:105030000820FEF7A9FD01218804FEF7C5FD4FF405
:105040004070069002208DF81C008DF81D00002095
:105050008DF81E0001208DF81F0006A91C48FEF7E0
:1050600076F8072208211A48FEF7B9F80722092125
:105070001748FEF7B4F802940020ADF80C00ADF824
:105080000E00ADF81000ADF814000C20ADF81200C1
:1050900002A9104800F0A0F801210E4800F02BF8FA
:1050A000012240F224410B4800F071F827208DF8CE
:1050B000040000208DF805008DF8060001208DF811
:1050C000070001A8FEF776FAFFF7EAFE08B010BD68
:1050D000000C02400048004010B50022002340F6BA
:1050E0006A14A14200D100BF0A1201249440A3B265
:1050F000DC43048010BD21B1828942F400528281D8
:1051000004E082894DF6FF731A40828170471AB11C
:10511000838A0B43838202E0838A8B4383827047B6
:1051200002460020B1F5007F00D100BF13880B407C
:105130000BB1012000E00020704770B5024600244A
:1051400000230025002040F66A16B14200D100BFBE
:10515000C1F3421501F01F03012606FA03F3012DE6
:1051600002D19689334006E0022D02D1168A3340DF
:1051700001E0968A33400C12012606FA04F41688E0
:10518000344013B10CB1012000E0002070BDF0B537
:105190000346002400260025002040F66A17B94285
:1051A00000D100BF1846C1F3421401F01F060127C9
:1051B00007FA06F5012C01D10C3004E0022C01D1D4
:1051C000103000E014301AB107682F43076002E086
:1051D0000768AF430760F0BD2DE9FF4705460E465F
:1051E0000024A14600BFA046B08900B100BF2C8AB0
:1051F00024F44054F08804432C82AC8941F20C60C2
:105200008443B08831890843718908430443AC81E1
:10521000AC8A24F44074B0890443AC826846FEF73B
:10522000F3FC2048854202D01F48854202D1DDF8B8
:105230000C9001E0DDF80890A88900F4004040B12E
:1052400009EBC90000EB091031684900B0FBF1F728
:1052500007E009EBC90000EB091031688900B0FBD9
:10526000F1F76420B7FBF0F004012009642101FB91
:105270001078A88900F4004040B1322000EBC8004B
:10528000B0FBF1F000F00700044308E0322000EB2F
:1052900008106421B0FBF1F000F00F0004432C81F2
:1052A000BDE8FF87001001400014014001468888D6
:1052B000C0F308007047C1F308028280704770B5E0
:1052C00004460D46D4F8E405294642682046904736
:1052D000002070BD70B504460D464FF48970005D26
:1052E000022802D0032812D100E000BF68880128FC
:1052F0000CD100214FF48C700151D4F8E4052946FB
:10530000826820469047204600F075F804E0294660
:10531000204600F021F800BF00BF70BD2DE9F0412C
:1053200006460C46154600272B46224600213046ED
:10533000FDF744F83846BDE8F0812DE9F041064616
:105340000C46154600272B46224600213046FDF725
:1053500090F83846BDE8F08170B504460D468021CE
:105360002046FDF762F800212046FDF75EF8204652
:1053700001F07DF970BD2DE9F04104460E46154659
:105380000027C4F89453C4F89053032140F211103D
:1053900001552B46324600212046FDF70FF83846CE
:1053A000BDE8F08170B504460025052140F21110DA
:1053B000015500231A4619462046FCF7FFFF2046F8
:1053C00001F055F9284670BD2DE9F04104460E461E
:1053D00015460027C4F83C51C4F83851022140F268
:1053E000111001552B46324600212046FDF741F8A9
:1053F0003846BDE8F08170B504460025042140F22E
:105400001110015500231A4619462046FDF731F8C0
:10541000204601F02CF9284670BD70B505460E46B1
:10542000002E51D105F58E7440F21110405D022816
:105430003DD1A168E069884211D9A168E069401AAC
:10544000E061E878012803D1D4E902100844E06063
:10545000A08B82B22846E168FFF76FFF27E0A168C2
:10546000206AB0FBF1F201FB120078B9A168206A52
:1054700088420BD3D4E90801884207D200221146A2
:105480002846FFF75AFF0020606210E0D5F8E405D7
:10549000C06848B14FF48970405D032804D1D5F845
:1054A000E405C168284688472846FFF77BFF4FF48C
:1054B0008B70405D012816D1284600F06BFA002160
:1054C0004FF48B7041550EE0D5F8E405406950B1BA
:1054D0004FF48970405D032805D1D5F8E4053146C5
:1054E000426928469047002070BD70B505460E46BB
:1054F000A6BB05F55D7440F21110405D03283DD157
:10550000A168E069884217D9A168E069401AE061A2
:10551000E878012803D1D4E902100844E060A368C8
:10552000E069984201D2E06900E0A06882B22846B2
:10553000E168FFF7F3FE21E0D5F8E405006948B122
:105540004FF48970405D032804D1D5F8E405016962
:10555000284688472846FFF74EFF0FE0FFE7D5F8BB
:10556000E405806950B14FF48970405D032805D18E
:10557000D5F8E4053146826928469047002070BD81
:10558000014600207047000070B504460D46E888CB
:10559000012804D029462046FFF7DEFE1AE04FF42A
:1055A0008970005D022802D003280DD105E0012298
:1055B00009492046FFF708FF0BE0012204F5887136
:1055C0002046FFF701FF04E029462046FFF7C4FE0E
:1055D00000BF00BF70BD00005C040020F8B50446A9
:1055E0000E467088001208286CD2DFE800F06B04C9
:1055F00016226B6B6166A078D4F8EC150A686946D0
:1056000090470546F088402804D04FF48970005D2B
:10561000012801D10820009059E0A078D4F8E415C1
:105620008A6A69469047054602216970C4F8F055B8
:105630004DE0B078062834D2DFE800F0030B131BEE
:10564000232BA078D4F8EC154A68694690470546A4
:105650002CE0A078D4F8EC158A6869469047054696
:1056600024E0A078D4F8EC15CA686946904705464E
:105670001CE0A078D4F8EC150A6969469047054605
:1056800014E0A078D4F8EC154A69694690470546BD
:105690000CE0A078D4F8EC158A6969469047054675
:1056A00004E031462046FFF757FEF8BD00BF0EE08C
:1056B00031462046FFF750FEF7E731462046FFF718
:1056C0004BFEF2E731462046FFF746FEEDE700BF0E
:1056D000BDF8000088B1F08878B1F088BDF80010FE
:1056E000884202DDBDF8000000E0F0880090BDF8BF
:1056F000002029462046FFF767FE00BFD5E7014698
:10570000002002E0421CD0B2491C0A78002AF9D1DC
:105710007047000070B504460D464FF48970005D77
:10572000022802D0032813D100E000BF01200C4959
:1057300008604FF48C70005920B10846006840F0B2
:1057400002000860022206492046FFF73DFE04E001
:1057500029462046FFF700FE00BF00BF70BD0000D5
:10576000600400202DE9F04104460D46174600264E
:10577000FCB12046FFF7C3FF022101EB4000388057
:105780003A783046711CCEB22A5403223046711C3E
:10579000CEB22A540AE014F8012B3046711CCEB266
:1057A0002A5400223046711CCEB22A542078002898
:1057B000F1D1BDE8F0812DE9F04104460F461546D0
:1057C0001E46DDF81880204600F01AFC2046FFF740
:1057D000D7FEC4F8E465C4F8E885C4F8EC5539464A
:1057E0002046FDF73BF9D4F8E815086880472046C5
:1057F00000F0F0FBBDE8F08110B50446D4F8E405F4
:10580000016A20468847002010BD10B50446D4F830
:10581000E405416A20468847002010BD7CB5054656
:105820000024284601F018FA002865D0284601F027
:105830001EFA0190019808B900207CBD0198C0F3C0
:10584000C04018B12846FCF711FF04430198C0F38B
:10585000804018B12846FCF767FE04430198C0F366
:10586000400050B100200090009820F00200801C01
:1058700000900098E968486100BF0198C00F18B116
:105880002846FCF773FF04430198C0F3C02018B109
:105890002846FDF70DF804430198C0F3C00018B185
:1058A0002846FCF7EFFF04430198C0F3001018B13D
:1058B0002846FCF78FFF04430198C0F3003018B16D
:1058C0002846FDF749F804430198C0F3403018B169
:1058D0002846FCF7F5FD04430198C0F3005018B1C9
:1058E0002846FDF709F904430198C0F3405018B168
:1058F0002846FDF717F9044320469EE790F8CC258B
:105900000A7090F8CD254A7090F8CE3590F8CF25E2
:1059100003EB02224A8090F8D03590F8D12503EBB2
:1059200002228A8090F8D23590F8D32503EB022228
:10593000CA80CB884FF4A0721350012340F2111299
:105940001354704710B504460023402219462046E0
:10595000FCF700FD0023402280212046FCF7FAFCE2
:1059600001214FF489700155A078D4F8E8255168D9
:105970008847002010BD10B50446D4F8E815086922
:10598000804740F21310015D401E0155032101556F
:10599000002010BD014603480268086942600020EB
:1059A000704700002404002010B50446D4F8E40534
:1059B000C06920B1D4F8E405C169204688470020B9
:1059C00010BD70B504460D46A88818BBE88808BB12
:1059D000A87800F07F064FF48970005D032804D199
:1059E00029462046FFF7B8FC18E04FF48A700655A8
:1059F00031462046FCF70BFD2046FFF7FCFC26B1A4
:105A000002214FF48970015508E001214FF489709B
:105A1000015503E029462046FFF79EFC70BD70B596
:105A200004460D46D4F8E40529460268204690470E
:105A3000D4F8E81588688047002070BD70B504462A
:105A40000D46A8783049087008460078012804DD22
:105A500029462046FFF780FC55E04FF48970005D31
:105A6000022802D0032848D117E02748007880B1E7
:105A70002548007884F8100103214FF489700155FE
:105A8000214801782046FFF7CAFF2046FFF7B3FC04
:105A900002E02046FFF7AFFC34E01B48007880B9F5
:105AA00002214FF4897001551748007884F81001DD
:105AB000154801782046FFF702FC2046FFF79BFCC3
:105AC0001AE094F8100110490978884211D094F82E
:105AD00010112046FFF7F3FB0B48007884F8100103
